:020000040000fa
:080000000002040000000000f2
:020000040000fa
:040008007803000079
:020000040000fa
:04000c00ba03000033
:020000040000fa
:04001000fa030000ef
:020000040000fa
:04001400980300004d
:020000040000fa
:04001800da03000007
:020000040000fa
:04001c005405000087
:020000040000fa
:040020001a040000be
:020000040000fa
:04002400540500007f
:020000040000fa
:04002800540500007b
:020000040000fa
:04002c00420300008b
:020000040000fa
:040030005405000073
:020000040000fa
:04003400540500006f
:020000040000fa
:04003800540500006b
:020000040000fa
:04003c005405000067
:020000040000fa
:040040005405000063
:020000040000fa
:04004400540500005f
:020000040000fa
:04004800540500005b
:020000040000fa
:04004c005405000057
:020000040000fa
:040050005405000053
:020000040000fa
:04005400540500004f
:020000040000fa
:04005800540500004b
:020000040000fa
:04005c005405000047
:020000040000fa
:040060005405000043
:020000040000fa
:04006400540500003f
:020000040000fa
:04006800540500003b
:020000040000fa
:04006c005405000037
:020000040000fa
:040070005405000033
:020000040000fa
:04007400540500002f
:020000040000fa
:04007800540500002b
:020000040000fa
:04007c005405000027
:020000040000fa
:040080005405000023
:020000040000fa
:04008400540500001f
:020000040000fa
:04008800540500001b
:020000040000fa
:04008c005405000017
:020000040000fa
:040090005405000013
:020000040000fa
:04009400540500000f
:020000040000fa
:04009800540500000b
:020000040000fa
:04009c005405000007
:020000040000fa
:0400a0005405000003
:020000040000fa
:0400a40054050000ff
:020000040000fa
:0400a80054050000fb
:020000040000fa
:0400ac0054050000f7
:020000040000fa
:0400b00054050000f3
:020000040000fa
:0400b40054050000ef
:020000040000fa
:0400b80054050000eb
:020000040000fa
:0400bc0054050000e7
:020000040000fa
:0400c00054050000e3
:020000040000fa
:0400c40054050000df
:020000040000fa
:0400c80054050000db
:020000040000fa
:0400cc0054050000d7
:020000040000fa
:0400d00054050000d3
:020000040000fa
:0400d40054050000cf
:020000040000fa
:0400d80054050000cb
:020000040000fa
:0400dc0054050000c7
:020000040000fa
:0400e00054050000c3
:020000040000fa
:0400e40054050000bf
:020000040000fa
:0400e80054050000bb
:020000040000fa
:0400ec0054050000b7
:020000040000fa
:0400f00054050000b3
:020000040000fa
:0400f40054050000af
:020000040000fa
:0400f80054050000ab
:020000040000fa
:0400fc0054050000a7
:020000040000fa
:0401000054050000a2
:020000040000fa
:04010400540500009e
:020000040000fa
:04010800540500009a
:020000040000fa
:04010c005405000096
:020000040000fa
:040110005405000092
:020000040000fa
:04011400540500008e
:020000040000fa
:04011800540500008a
:020000040000fa
:04011c005405000086
:020000040000fa
:040120005405000082
:020000040000fa
:04012400540500007e
:020000040000fa
:04012800540500007a
:020000040000fa
:04012c005405000076
:020000040000fa
:040130005405000072
:020000040000fa
:04013400540500006e
:020000040000fa
:04013800540500006a
:020000040000fa
:04013c005405000066
:020000040000fa
:040140005405000062
:020000040000fa
:04014400540500005e
:020000040000fa
:04014800540500005a
:020000040000fa
:04014c005405000056
:020000040000fa
:040150005405000052
:020000040000fa
:04015400540500004e
:020000040000fa
:04015800540500004a
:020000040000fa
:04015c005405000046
:020000040000fa
:040160005405000042
:020000040000fa
:04016400540500003e
:020000040000fa
:04016800540500003a
:020000040000fa
:04016c005405000036
:020000040000fa
:040170005405000032
:020000040000fa
:04017400540500002e
:020000040000fa
:04017800540500002a
:020000040000fa
:04017c005405000026
:020000040000fa
:040180005405000022
:020000040000fa
:04018400540500001e
:020000040000fa
:04018800540500001a
:020000040000fa
:04018c005405000016
:020000040000fa
:040190005405000012
:020000040000fa
:04019400540500000e
:020000040000fa
:04019800120300004e
:020000040000fa
:04019c0064040000f7
:020000040000fa
:0401a0005405000002
:020000040000fa
:0401a40054050000fe
:020000040000fa
:0401a80054050000fa
:020000040000fa
:0401ac0054050000f6
:020000040000fa
:0401b00054050000f2
:020000040000fa
:0401b40054050000ee
:020000040000fa
:0401b80054050000ea
:020000040000fa
:0401bc0054050000e6
:020000040000fa
:0401c00054050000e2
:020000040000fa
:0401c40054050000de
:020000040000fa
:0401c80054050000da
:020000040000fa
:0401cc0054050000d6
:020000040000fa
:0401d00054050000d2
:020000040000fa
:0401d40054050000ce
:020000040000fa
:0401d80054050000ca
:020000040000fa
:0401dc0054050000c6
:020000040000fa
:0401e000a004000077
:020000040000fa
:0401e400dc04000037
:020000040000fa
:0401e80054050000ba
:020000040000fa
:0401ec0054050000b6
:020000040000fa
:0401f00054050000b2
:020000040000fa
:0401f40054050000ae
:020000040000fa
:0401f80054050000aa
:020000040000fa
:0401fc0054050000a6
:020000040000fa
:0402000054050000a1
:020000040000fa
:04020400540500009d
:020000040000fa
:040208005405000099
:020000040000fa
:04020c005405000095
:020000040000fa
:040210005405000091
:020000040000fa
:04021400540500008d
:020000040000fa
:040218005405000089
:020000040000fa
:04021c005405000085
:020000040000fa
:040220005405000081
:020000040000fa
:04022400540500007d
:020000040000fa
:040228005405000079
:020000040000fa
:04022c005405000075
:020000040000fa
:040230005405000071
:020000040000fa
:04023400540500006d
:020000040000fa
:040238005405000069
:020000040000fa
:04023c005405000065
:020000040000fa
:040240005405000061
:020000040000fa
:04024400540500005d
:020000040000fa
:040248005405000059
:020000040000fa
:04024c005405000055
:020000040000fa
:040250005405000051
:020000040000fa
:04025400540500004d
:020000040000fa
:040258005405000049
:020000040000fa
:04025c005405000045
:020000040000fa
:040260005405000041
:020000040000fa
:04026400540500003d
:020000040000fa
:040268005405000039
:020000040000fa
:04026c005405000035
:020000040000fa
:040270005405000031
:020000040000fa
:04027400540500002d
:020000040000fa
:040278005405000029
:020000040000fa
:04027c005405000025
:020000040000fa
:040280005405000021
:020000040000fa
:04028400540500001d
:020000040000fa
:040288005405000019
:020000040000fa
:04028c005405000015
:020000040000fa
:040290005405000011
:020000040000fa
:04029400540500000d
:020000040000fa
:040298005405000009
:020000040000fa
:04029c005405000005
:020000040000fa
:0402a0005405000001
:020000040000fa
:0402a40054050000fd
:020000040000fa
:0402a80054050000f9
:020000040000fa
:0402ac0054050000f5
:020000040000fa
:0402b00054050000f1
:020000040000fa
:0402b40054050000ed
:020000040000fa
:0402b80054050000e9
:020000040000fa
:0402bc0054050000e5
:020000040000fa
:0402c00054050000e1
:020000040000fa
:0402c40054050000dd
:020000040000fa
:0402c80054050000d9
:020000040000fa
:0402cc0054050000d5
:020000040000fa
:0402d00054050000d1
:020000040000fa
:0402d40054050000cd
:020000040000fa
:0402d80054050000c9
:020000040000fa
:0402dc0054050000c5
:020000040000fa
:0402e00054050000c1
:020000040000fa
:0402e40054050000bd
:020000040000fa
:0402e80054050000b9
:020000040000fa
:0402ec0054050000b5
:020000040000fa
:0402f00054050000b1
:020000040000fa
:0402f40054050000ad
:020000040000fa
:0402f80054050000a9
:020000040000fa
:0402fc0054050000a5
:020000040000fa
:0403000054050000a0
:020000040000fa
:04030400540500009c
:020000040000fa
:040308005405000098
:020000040000fa
:04030c005405000094
:020000040000fa
:040310005405000090
:020000040000fa
:04031400540500008c
:020000040000fa
:040318005405000088
:020000040000fa
:04031c005405000084
:020000040000fa
:100400006f1121002efe24000e0188000000000064
:10041000000020000000e000020032000001200087
:100420002002880014000700a10107000000e0007e
:1004300003003a0080222100010020000200370062
:100440000000200001002000810f70000100320038
:100450000f000700000020000000e0000200320052
:100460000000020000000000c613020000000000af
:100470000040da000000fe00200020000000e00044
:1004800002003200100020009001880000000600e9
:10049000a1028800800478000000eb001f003700f4
:1004a000e284440054a0b4009905ba00e2844400f8
:1004b00054a0b4009906ba00e284440054a0b400e9
:1004c0000006eb00476fde00fd07b200ae018800ba
:1004d000636ce10003003a000ad801000000eb0061
:1004e0000e003700606ce10008003a00004deb00a0
:1004f0000a05e800020039003420ec000af0a000f0
:100500008b05e900f9ff3e00040037006168e10057
:10051000010032000086eb000b00070019c7ba008b
:100520001905ba000e04e00003003a000a00e000da
:10053000dbff3a0000000600fe07b200ae028800b2
:100540008a047800f5ff37000cd0a300e20f4d00bd
:100550001c003b0089027800354dba000a05e8000e
:10056000020039003420ec000af0a0008b05e900fd
:100570000f003200254dba000a05e80002003900dc
:100580003420ec000af0a0008b05e90008003200de
:100590000c00e0000600320015cdba000a05e800a4
:1005a000020039003420ec000af0a0008b05e900bd
:1005b0008984e80054a0b4000b00e000e2ff3a0098
:1005c000000006009902ba00055d78008b05e9007d
:1005d000f7ff3200c82ade00055d78008b05e900d0
:1005e000f3ff32000c00e000f1ff320019ddba0029
:1005f000eeff3700000000000000000000000000d7
:1006000000000000000000000000000000000000ea
:1006100000000000000000000000000000000000da
:10062000000000003600f800809fbe00829fbe00e0
:10063000849fbe00869fbe003200f8003400f800a0
:1006400010002000a00188001000200000d0fe0053
:100650000000fa00000521001f0407000b88a90014
:100660000080fa003400f9003200f9004f03be00a8
:100670004f02be004f01be004f00be003600f90021
:10068000004006003600f800809fbe00829fbe003a
:10069000849fbe00869fbe000000fa00508280004a
:1006a0000000e000020032005082800000000100e3
:1006b00050112100104078008040e80050112100c6
:1006c000014878004011210011c0b30001487800b2
:1006d0000028a9000080fa004f03be004f02be00b0
:1006e0004f01be004f00be003600f900004006007a
:1006f0003600f800809fbe00829fbe00849fbe002f
:10070000869fbe000000fa00c028a9000000eb0090
:10071000120807000080fa004f03be004f02be001f
:100720004f01be004f00be003600f9000040060039
:100730003600f800809fbe00829fbe00849fbe00ee
:10074000869fbe000000fa0009080700c048a90003
:1007500010002000010807000080fa004f03be00cf
:100760004f02be004f01be004f00be003600f90030
:10077000004006003600f800809fbe00829fbe0049
:10078000849fbe00869fbe000000fa00c068a900da
:1007900020002000f10707000080fa004f03be0090
:1007a0004f02be004f01be004f00be003600f900f0
:1007b000004006003600f800809fbe00829fbe0009
:1007c000849fbe00869fbe000000fa00c088a9007a
:1007d00030002000e10707000080fa004f03be0050
:1007e0004f02be004f01be004f00be003600f900b0
:1007f000004006003600f800809fbe00829fbe00c9
:10080000849fbe00869fbe000000fa00c608a900b3
:1008100070002000d10707000080fa004f03be00df
:100820004f02be004f01be004f00be003600f9006f
:10083000004006003600f800809fbe00829fbe0088
:10084000849fbe00869fbe000000fa002146800003
:1008500000102000008060000000e0000300320073
:10086000c508a900c0002000bc0707002146800081
:1008700000022000008060000000e0000300320061
:10088000c4a8a90090002000b407070020468000fb
:10089000700060000000e00003003200c488a9007e
:1008a000a0002000ad070700204680006100600026
:1008b0000000e00003003200c408a900b0002000de
:1008c000a6070700ffff37003600f800809fbe0034
:1008d000829fbe00849fbe00869fbe003200f8004b
:1008e0003400f80010002000a00188001000200053
:1008f00000d0fe000200fa0081608000010f780045
:10090000d08180000000e00003003200d18180002f
:100910001e007800010001000ba8a9000080fa0069
:100920003400f9003200f9004f03be004f02be0050
:100930004f01be004f00be003600f9000040060027
:100940003600f800809fbe00829fbe00849fbe00dc
:10095000869fbe003200f8003400f800100020002e
:10096000a00188001000200000d0fe000200fa0064
:1009700091618000010f7800e08180000000e000bc
:1009800003003200e18180001e00780001000100b8
:100990000dc8a9000080fa003400f9003200f90007
:1009a0004f03be004f02be004f01be004f00be000d
:1009b0003600f900004006003600f800809fbe00b7
:1009c000829fbe00849fbe00869fbe003200f8005a
:1009d0003400f80010002000a00188001000200062
:1009e00000d0fe000200fa00a1618000010f780033
:1009f000f08180000000e00003003200f1818000ff
:100a00001e007800010001000de8a9000080fa0036
:100a10003400f9003200f9004f03be004f02be005f
:100a20004f01be004f00be003600f9000040060036
:100a30003600f800809fbe00829fbe00849fbe00eb
:100a4000869fbe003200f8003400f800100020003d
:100a5000a00188001000200000d0fe000200fa0073
:100a600071608000010f7800008280000000e000cb
:100a700003003200018280001e00780001000100a6
:100a80000b88a9000080fa003400f9003200f90058
:100a90004f03be004f02be004f01be004f00be001c
:100aa0003600f900004006000040da000000fe00b9
:040ab000000005003d
:020000040000fa
:100ab4000400fa008e80e800800878000000eb0053
:100ac400000f78000e80e80010007800f0400a0063
:100ad400100000000e80e8001000780001002100e2
:100ae400f20f200002816000430220008081410057
:100af40093417800e0c1610082c17100420220008c
:100b04000001410003497800c808de0052022000b9
:100b14000001410012417800604161008140710090
:100b24005002b000014878000e80e8001000780000
:100b3400c1002100f20f2000028160006302200046
:100b44008081410093417800e0c1610082c171005d
:100b5400620220000001410003497800c808de0059
:100b640072022000000141001241780060416100de
:100b7400814071007002b000014878000e80e800e6
:100b84001000780021ff2400f20f20000281600091
:100b9400830220008081410093417800e0c161001c
:100ba40082c17100820220000001410003497800e3
:100bb400c808de00920220000001410012417800c2
:100bc40060416100814071009002b00001487800ea
:100bd4000e80e8001000780081ff2400f20f20004e
:100be40002816000a30220008081410093417800cb
:100bf400e0c1610082c17100a20220000001410035
:100c040003497800c808de00b20220000001410058
:100c1400124178006041610081407100b002b0006f
:100c240001487800118280000e80e80010007800ee
:100c3400f20f2000028160006303200080814100e4
:100c440093417800e0c1610082c171006203200019
:100c54000001410003497800c808de007203200047
:100c6400000141001241780060416100814071003f
:100c74007003b00001487800218280000e80e800f3
:100c840010007800f20f200002816000830320002e
:100c94008081410093417800e0c1610082c171000c
:100ca400820320000001410003497800c808de00e7
:100cb400920320000001410012417800604161006c
:100cc400814071009003b0000148780031828000b7
:100cd4000e80e80010007800f20f2000028160000e
:100ce400a30320008081410093417800e0c16100aa
:100cf40082c17100a2032000000141000349780071
:100d0400c808de00b203200000014100124178004f
:100d14006041610081407100b003b0000148780077
:100d2400218180000e80e80010007800f20f20007e
:100d340002816000430320008081410093417800d8
:100d4400e0c1610082c17100420320000001410042
:100d540003497800c808de00520320000001410066
:100d64001241780060416100814071005003b0007d
:100d740001487800e18080000e80e80010007800cf
:100d8400f20f200002816000c30220008081410034
:100d940093417800e0c1610082c17100c202200069
:100da4000001410003497800c808de00d202200097
:100db40000014100124178006041610081407100ee
:100dc400d002b00001487800f18080000e80e80075
:100dd40010007800f20f200002816000e30220007e
:100de4008081410093417800e0c1610082c17100bb
:100df400e20220000001410003497800c808de0037
:100e0400f2022000000141001241780060416100bb
:100e140081407100f002b000014878000181800037
:100e24000e80e80010007800f20f200002816000bc
:100e3400030320008081410093417800e0c16100f8
:100e440082c17100020320000001410003497800bf
:100e5400c808de001203200000014100124178009e
:100e640060416100814071001003b00001487800c6
:100e7400118180000e80e80010007800f20f20003d
:100e840002816000230320008081410093417800a7
:100e9400e0c1610082c17100220320000001410011
:100ea40003497800c808de00320320000001410035
:100eb4001241780060416100814071003003b0004c
:100ec400014878000000eb00000f78000d003700a7
:100ed4001e0178001e007800c200dd00800f210092
:100ee400008040001000be00c211dd00020021009d
:100ef400028141000089be001e0078000000e80065
:100f0400000f78000e80e80010007800c102200075
:100f140080804000914078008180fb00d002b000c6
:100f2400104078000080fb004800dd000080700065
:100f34009e007800810f5000e5ff3e000000eb00aa
:100f4400000f78000e0037001e0178001e007800a4
:100f5400c200dd0040102100008040001000be00ef
:100f640063014100c211dd00020021000281410041
:100f74000089be001e0078000000e800000f780021
:100f84000e80e80010007800e1022000808040001c
:100f9400914078008180fb00f002b000104078009e
:100fa4000080fb004800dd00008070009e00780097
:100fb400810f5000e4ff3e000005210028020700d5
:100fc400318180000e80e80010007800f20f2000cc
:100fd40002816000e3032000808141009341780096
:100fe400e0c1610082c17100e20320000001410000
:100ff40003497800c808de00f20320000001410024
:10100400124178006041610081407100f003b0003a
:1010140001487800418180000e80e80010007800cb
:10102400f20f200002816000c30320008081410090
:1010340093417800e0c1610082c17100c2032000c5
:101044000001410003497800c808de00d2032000f3
:10105400000141001241780060416100814071004b
:10106400d003b00001487800100020000080fa008e
:10107400000006000200fa000000eb00000f7800f8
:101084004830ef00e0c02000f10f200001016000b3
:101094002105210091417800e0c1610002c1710085
:1010a40082487800c800de00300521001041780035
:1010b4006041610081407100014878008005210091
:1010c40090407800e0c0600001487800900521005d
:1010d40090407800e0c0600001487800400521009d
:1010e40090407800e0c0600001487800500521007d
:1010f40090407800e0c0600001487800600521005d
:101104001041780080c0eb008140710001487800f4
:10111400700521009040780060c16000f1c7b30001
:10112400814071000148780020492000f10f20001f
:10113400010160002106210091417800e0c16100b5
:1011440002c1710082487800c800de003006210028
:1011540010417800604161008140710001487800cd
:101164008006210090407800e0c0600001487800cb
:101174009006210090407800e0c0600001487800ab
:101184004006210090407800e0c0600001487800eb
:101194005006210090407800e0c0600001487800cb
:1011a400600621001041780080c0eb00814071008e
:1011b40001487800700621009040780060c160000a
:1011c400f1c7b30081407100014878008004210018
:1011d400f10f2000010160002107210091417800f6
:1011e400e0c1610002c1710082487800c800de00dd
:1011f4003007210010417800604161008140710096
:10120400014878008009210090407800e0c0600027
:101214000144a00001487800900921009040780022
:10122400e0c0600001487800a009210090407800e7
:1012340060c1600091c3b30081407100014878002f
:10124400b00921009040780060c1600081c3b30000
:101254008140710001487800800c210090407800a2
:10126400e0c0600001487800900c210090407800b4
:10127400e0c0600001487800a00c21009040780094
:10128400e0c0600001487800b00c21009040780074
:10129400e0c0600001487800c00c21009040780054
:1012a400e0c0600001487800d00c21009040780034
:1012b400e0c0600001487800e00c21009040780014
:1012c400e0c0600001487800f00c210090407800f4
:1012d400e0c0600001487800000d210090407800d3
:1012e400e0c0600001487800100d210090407800b3
:1012f400e0c0600001487800200d21009040780093
:10130400e0c0600001487800300d21009040780072
:10131400e0c0600001487800400d21009040780052
:10132400e0c0600001487800500d21009040780032
:10133400e0c0600001487800600d21009040780012
:10134400e0c0600001487800700d210090407800f2
:10135400e0c060000148780010052100904078004a
:101364000174a1000148780000052100d0fd0700a8
:10137400000f78001e0078000080fa0000000600cc
:101384000000fa0010052100904078000174a000cc
:101394000148780041828000408c2000808f5000fa
:1013a40004003e00408280006a00400040828800c1
:1013b40002003700508c2000408288000080fa0030
:1013c400000006000000fa00002bef0000062000d9
:1013d40010588800042bef00062bef00082bef00b9
:1013e40000202c00505888000c2bef0040002000f7
:1013f40070588800102bef00122bef00142bef0015
:1014040060002000005988008001200010598800e5
:10141400382bef00402bef00482bef00502bef0050
:101424003a2bef00422bef004a2bef00522bef0038
:101434003c2bef00442bef004c2bef00542bef0020
:101444003e2bef00462bef004e2bef00562bef0008
:1014540000402000505b880000402000705b880042
:1014640000402000905b880000402000b05b8800b2
:10147400a02bef00a42bef00a82bef00ac2bef0068
:10148400d02bef00d22bef00d42bef00d82bef00a2
:1014940000302000b05e880000302000d05e88005c
:1014a400f02bef00f22bef00022cef00e0ae200057
:1014b4004c000700c0b120006200070000b3200008
:1014c4006a00070040b420007200070080b52000c5
:1014d4007a0007000ba8a9002ba8a8000dc8a90032
:1014e4002dc8a8000de8a9002de8a8000b88a900c4
:1014f4002b88a8001160800000f02000010070001b
:101504001060880001eba800280007001c000700f9
:1015140000e02000005c880010002000105c8800bf
:10152400842bef00862bef00882bef008a2bef0033
:101534008c2bef008e2bef00902bef00001020007f
:10154400905c880010002000a05c88000080fa00f5
:10155400000006000000fa00000ca80000000000d3
:101564000160800000102000008060000000e000a6
:10157400fbff32000a0ba8000080fa0000000600fe
:101584000000fa00002ca8000000000001608000a8
:1015940000202000008060000000e000fbff32001b
:1015a4000a2ba8000080fa00000006000000fa00e0
:1015b40000eca8000000000001608000000028008a
:1015c400008060000000e000fbff32000aeba8008e
:1015d4000080fa00000006000000fa000080fa0013
:1015e400000006000200fa00000f78001e007800d8
:1015f400c08188000080fa00000006000000fa00a4
:101604005140800000402000008060000000e000a5
:1016140006003200c08180000000e00002003200b9
:10162400c0818000000001000b48a9000080fa007e
:10163400000006000200fa00000f78000080fa00a3
:10164400000006000200fa00000f78001e00780077
:10165400d08188000080fa00000006000200fa0031
:10166400000f78000080fa00000006000200fa0073
:10167400000f78001e007800e08188000080fa00e6
:10168400000006000200fa00000f78000080fa0053
:10169400000006000200fa00000f78001e00780027
:1016a400f08188000080fa00000006000200fa00c1
:1016b400000f78000080fa00000006000200fa0023
:1016c400000f78001e007800008288000080fa0075
:1016d4000000060000a0fe0010f0a6005c00370029
:1016e400841f7800851f7800861f7800881f780083
:1016f4008a1f78002200f8002400f8002600f80071
:101704002800f8002a00f8002c00f8004400f80033
:101714004200f800040c20002402880050159000b8
:101724002a039000360598001a03900026059800b5
:101734000a039000160598001001900092007800aa
:101744001011900092801000201990008208dd0092
:1017540030149000010d78005290c3008608c30035
:101764008708c1000500c8000080cb00d8ba9700e4
:101774008708c1000500c8000080cb00d8ba9700d4
:101784008708c1000500c8000080cb00d8ba9700c4
:101794001301c1000500c8000080cb002014900094
:1017a400401590005290c7008608c3008708c10006
:1017b4000500c8000080cb00d8ba97008708c10094
:1017c4000500c8000080cb00d8ba97001301c100ff
:1017d4000500c8000080cb000480cd0040239000a9
:1017e4001620e600060278005023900016a0e600ba
:1017f40006027800100c9000040c7800401590004c
:101804001a039000260598000a0390001605980014
:10181400040d78004200f9004400f9002c00f9009e
:101824002a00f9002800f9002600f9002400f90034
:101834002200f9004f0578004f0478004f03780028
:10184400cf0278004f0278002e0c04000000000044
:1018540010019000920078000080fe000000060055
:10186400801f7800401090000018eb000018eb0077
:101874000008eb004f007800801f780050109000a3
:101884000018eb000018eb000018eb000008eb0058
:101894004f00780000000600801f7800811f780048
:1018a4005010900001187800011878000118780091
:1018b40001087800cf0078004f007800801f78007e
:1018c400821f7800401090000218780002187800f7
:1018d400020878004f0178004f00780000000600ed
:1018e40000a0fe0010f0a60030003700841f78002e
:1018f400861f7800881f78008a1f78002200f8006d
:101904002400f8002600f8002800f8002a00f80057
:101914002c00f8004400f8004200f800040c2000f9
:1019240024028800100190009200780010119000a9
:1019340092801000201990008208dd00701b900036
:1019440060199000010278001301c1000200c80070
:101954000400cd00402390001620e6000602780023
:101964005023900016a0e60006027800100c9000a8
:10197400040c78004200f9004400f9002c00f9003e
:101984002a00f9002800f9002600f9002400f900d3
:101994002200f9004f0578004f0478004f037800c7
:1019a4004f027800dc0c04000000000010019000dd
:1019b400920078000080fe00000006000000fa009b
:1019c400d221ef000080fa00000006000000fa00b7
:1019d400d321a8000080fa00000006000000fa00ed
:1019e400a00e800088800a00000000000080fb0038
:1019f40000f0a7000000ea000000ea004f00de004b
:101a0400004078000080fa00000006000000fa00a0
:101a1400d321a9000080fa00000006000000fa00ab
:101a2400a00e800099800a00000000000080fb00e6
:101a340000f0a7000000ea000000ea004f00de000a
:101a4400004078000080fa00000006000000fa0060
:101a5400d301a8000080fa00000006000000fa008c
:101a6400d301a9000080fa00000006000200fa0079
:101a740030002000000f7800a10e80000000280034
:101a8400008060000000e0000300320040002000fd
:101a9400000f780016003700a00e8000dc800a00da
:101aa400000000000080fb00e10f5000070032003e
:101ab400e20f5000080032000000e00009003a0084
:101ac4000000eb00000f7800090037002000200020
:101ad400000f78000600370010002000000f780087
:101ae4000300370030002000000f780000000000e1
:101af4001e0078000080fa00000006000600fa00cc
:101b04000e81e800000978006400470001087800ad
:101b14000000eb00000f780014003700d10f8000a4
:101b240000102000008060000000e00014003a0073
:101b3400f10f80000e80e8001000780001087800a2
:101b44000e80e800100078008080e8000e80e80035
:101b54000108780064004700100078008000e90064
:101b640064004700010878001e0fe8006400470085
:101b7400100078000000e000e8ff3a0001003700a0
:101b8400000000001e0078000080fa00000006003b
:101b94000600fa000e81e80000097800640047009e
:101ba400010878000000eb00000f780013003700f4
:101bb400d00f8000620060000000e00014003a00d2
:101bc4000e80e8001000780010007800e00f880014
:101bd4000e80e800100078008080e8000e80e800a5
:101be4000108780064004700100078008000e900d4
:101bf40064004700010878001e0fe80064004700f5
:101c0400100078000000e000e9ff3a00010037000e
:101c1400000000001e0078000080fa0000000600aa
:101c24000000fa00007c80000080fa00000006003a
:101c34000200fa00faff0700000f78001e00780087
:101c4400240007000004e000020032000000280025
:101c54007d0007001e0078002c0007000004e0004f
:101c64000200320000002400770007001e00780004
:101c7400360007000004e0000200320000202000cb
:101c8400710007001e007800400007000004e00017
:101c940002003200000820006b0007001e007800dc
:101ca4004a0007000004e0000200320000042000a3
:101cb400650007001e007800540007000004e000df
:101cc40002003200000120005f0007000080fa00db
:101cd400000006000400fa008e80e8008008780006
:101ce4000040eb00004f78000e80e8001000780000
:101cf4000000e00002003d0010c0b300004f780077
:101d04001e4078000080fa00000006000400fa007b
:101d14008e80e800800878000040eb00004f7800d7
:101d24000e80e8009000780000002400008060002d
:101d34000000e0000200320010c0b300004f780041
:101d44001e4078000080fa00000006000400fa003b
:101d54008e80e800800878000040eb00004f780097
:101d64000e80e800900078000020200000806000d1
:101d74000000e0000200320010c0b300004f780001
:101d84001e4078000080fa00000006000400fa00fb
:101d94008e80e800800878000040eb00004f780057
:101da4000e80e800900078000008200000806000a9
:101db4000000e0000200320010c0b300004f7800c1
:101dc4001e4078000080fa00000006000400fa00bb
:101dd4008e80e800800878000040eb00004f780017
:101de4000e80e8009000780000042000008060006d
:101df4000000e0000200320010c0b300004f780081
:101e04001e4078000080fa00000006000400fa007a
:101e14008e80e800800878000040eb00004f7800d6
:101e24000e80e80010007800700060000000e00000
:101e34000200320010c0b300004f78001e4078004a
:101e44000080fa00000006000200fa00000f78008b
:101e54001e80ea00017c800001006000007c880094
:101e64000080fa00000006000000fa00802fef0056
:101e74000080fa00000006000000fa00800820003c
:101e84007023880010002000001888000223ef004f
:101e94000423ef000623ef000823ef0000012000d5
:101ea400501888000c23ef000e23ef001023ef00de
:101eb4001223ef001423ef001623ef001823ef0082
:101ec4001a23ef001c23ef001e23ef002023ef0052
:101ed4002223ef002423ef002623ef002823ef0022
:101ee4007024ef007224ef007424ef00e00120005e
:101ef400b023880080102000c02388007a24ef00db
:101f04007c24ef007e24ef008024ef008224ef0085
:101f14008424ef008624ef008824ef008a24ef0055
:101f24008c24ef008e24ef009024ef009224ef0025
:101f34009424ef0080e72300b02488009824ef0065
:101f44009a24ef009c24ef009e24ef00a024ef00cd
:101f54006fe4a8000080fa00000006000000fa0008
:101f64000080fa00000006000000fa0041408000f2
:101f740000202000008060000000e0000200320029
:101f8400f6ff07000928a9000080fa0000000600f7
:101f94000000fa000080fa00000006000000fa00c9
:101fa400a140800000202000008060000000e000cc
:101fb40002003200f6ff07001528a9000080fa008d
:101fc400000006000000fa000080fa00000006008d
:101fd4000000fa00a1408000004020000080600062
:101fe4000000e00002003200f6ff07001548a900d7
:101ff4000080fa00000006000000fa000080fa00e9
:10200400000006000000fa00a140800000802000cb
:10201400008060000000e00002003200f6ff0700cc
:102024001568a9000080fa00000006000000fa000c
:102034000080fa00000006000000fa00a1408000c1
:1020440000002100008060000000e0000200320077
:10205400f6ff07001588a9000080fa0000000600ba
:102064000000fa000080fa00000006000000fa00f8
:10207400a140800000002200008060000000e00019
:1020840002003200f6ff070015a8a9000080fa003c
:10209400000006000000fa000080fa0000000600bc
:1020a4000000fa00a14080000000240000806000cd
:1020b4000000e00002003200f6ff070015c8a90086
:1020c4000080fa00000006000000fa000421ef007e
:1020d400f0702200400888002010280000088800c2
:1020e400508280000000e00002003a0080122100cb
:1020f400240007000028a9002028a800401121007e
:102104008040eb00014878000080fa0000000600df
:102114000200fa00000f78009e0078004108880051
:10212400401121008040eb00014878000080fa0053
:10213400000006000000fa00400880000080fa0059
:10214400000006000200fa00000f78009e007800ec
:1021540021088800401121008040eb0001487800ec
:102164000080fa00000006000000fa002008800049
:102174000080fa00000006000000fa000080fa0067
:10218400000006000200fa00000f78002028a900d1
:102194009e007800518288002028a8000080fa0060
:1021a400000006000000fa00401121008040eb000e
:1021b400014878002028a80001e1a8000080fa0066
:1021c400000006000000fa0001e1a9002028a9008f
:1021d4000080fa00000006000200fa00401121000d
:1021e400104f78001e4078000004e0000300320025
:1021f400401121008040eb00014878001e40780027
:102204000080fa00000006000000fa0050112100ce
:10221400104078000080fb000080fa0000000600f7
:102224000000fa00501121008040eb0001487800c2
:102234000080fa00000006000000fa002a30ef00d7
:102244002c30ef000080fa00000006000000fa00c5
:10225400508180000000e800508188000028a90017
:10226400e00007002ed0bf000040e8002ef0b700c9
:102274002ed0bf00e94f500002003600dc000700fa
:102284002e70ef000080fa00000006000000fa0043
:102294006181800050818000808f500025003200d1
:1022a400608180000000e80060818800d30007009e
:1022b400808180000000e8008081880080818000a7
:1022c400e90f50001c0036003030ef00ce0007004c
:1022d400908180000000e800908188009081800057
:1022e400e90f5000140036003230ef00ca00070036
:1022f400a08180000000e800a0818800a081800007
:10230400e90f50000c0036003430ef00c500070020
:10231400b08180000000e800b0818800b0818000b6
:10232400e90f5000040036003630ef00c00007000b
:1023340001003700cd0007000080fa00000006000d
:102344000000fa002a30ef002c30ef00cfff070026
:10235400feff37000000fa0010002300307c8800e4
:10236400800c2000407c880020022000507c8800e3
:1023740010102800707c8800d0072000807c880022
:1023840010222000907c8800b82fef00ba2fef00b5
:10239400be2fef00002def00a42fef00a62fef00bb
:1023a400aa2fef00ae2fef00b02fef00b22fef00f7
:1023b4001200200080072000a109200053f820000b
:1023c4008049780081497800824978001200200011
:1023d400600420007105200043f820008049780043
:1023e400814978008249780000000000207c800048
:1023f400610060000000e000fcff3a000000000003
:10240400217c800000022000008060000000e000c9
:10241400fbff32000080fa00000006000000fa0012
:10242400707c8000ee800a00000000000080fb0049
:1024340000f0a7000000ea000000ea004f00de0000
:0c244400004078000080fa000000060054
:020000040000fa
:10245000f81000001c0000008200000000007b005b
:102460006c020000d54b070000474800ffff0f003b
:102470007bffff00bc9cff00ff0c8600ffff5f009e
:102480006400000050100000880000008000000080
:10249000001000001c000000800000001c10000064
:1024a0000e00000082000000030004000003000092
:1024b0000400030000404b00fdff0000f24f00004d
:1024c0000e00000080000000421000000600000026
:1024d00080000000481000000200000080000000a2
:1024e0001411000002000000800000004a100000eb
:1024f0000200000080000000d81000002000000052
:10250000800000004c10000002000000820000006b
:10251000ffff0000381000000a00000080000000eb
:102520002a1000000e000000800000004e10000085
:0c2530000200000080000000000000001d
:020000040000fa
:10253c000000fa00062eef00222eef003e2eef00d8
:10254c005a2eef00762eef00f0012000107088005c
:10255c000080eb00f0708800f0ff2b00d071880039
:10256c000080eb00b0728800d0ff2f0090738800c1
:10257c000c2eef00282eef00442eef00602eef0003
:10258c007c2eef000a2eef00262eef00422eef00dd
:10259c005e2eef007a2eef00082eef00242eef00b7
:1025ac00402eef005c2eef00782eef00f0012000a3
:1025bc0000708800d0392000e0708800f00c2000fa
:1025cc00c071880000c02700a072880000042000a1
:1025dc00807388000080fa00000006000000fa00fa
:1025ec000080fa00000006000000fa000080fa00eb
:1025fc00000006000000fa000080fa00000006004f
:10260c000000fa005cfb07000080fa0000000600e6
:10261c000000fa000080fa00000006000000fa003a
:10262c000080fa00000006000000fa00b073800081
:10263c0011800a00000000000004a200614060004c
:10264c000080fb006100600000004000b17380005e
:10265c000110a10001007000b07388000080fa0026
:10266c00000006000000fa000080fa0000000600de
:10267c000000fa00b1438000f08f2f000080600052
:10268c000080a000b0438800b1438000f0ff280018
:10269c000080600000c0a000b0438800714380003f
:1026ac0080ff2f00008060000000a00070438800b5
:1026bc0071438000f0f82f00008060000040a00003
:1026cc007043880001428000f0f82f000080600009
:1026dc000040a000004288000080fa0000000600c4
:1026ec000200fa00000f780021028000200f200069
:1026fc00008060001e007000200288000080fa003c
:10270c00000006000000fa00c3e8a800000000006a
:10271c00000000000080fa00000006000000fa0033
:10272c0083ff0700d2ff070008ff0700a1fc07008a
:10273c0022fb0700cefd070061fe0700f1ff07003a
:10274c0000022000e6ff07000080fa0000000600ef
:10275c000200fa00000f78009e0078006182880069
:10276c00ffff37000000fa00800d21008007780081
:10277c00000f2100000188000080fa000000060014
:10278c000000fa0039fa0700e4ff07000200070016
:10279c00e9fe0700ffff37000000fa00a4fe070067
:0827ac000080fa0000000600a5
:00000001FF
