:020000040000fa
:080000000002040000000000f2
:020000040000fa
:0400080004040000ec
:020000040000fa
:04000c0046040000a6
:020000040000fa
:040010008604000062
:020000040000fa
:0400140024040000c0
:020000040000fa
:04001800660400007a
:020000040000fa
:04001c008e0600004c
:020000040000fa
:04002000a604000032
:020000040000fa
:040024008e06000044
:020000040000fa
:040028008e06000040
:020000040000fa
:04002c00f0040000dc
:020000040000fa
:040030008e06000038
:020000040000fa
:040034008e06000034
:020000040000fa
:040038008e06000030
:020000040000fa
:04003c008e0600002c
:020000040000fa
:040040008e06000028
:020000040000fa
:040044008e06000024
:020000040000fa
:040048008e06000020
:020000040000fa
:04004c008e0600001c
:020000040000fa
:040050008e06000018
:020000040000fa
:040054008e06000014
:020000040000fa
:040058008e06000010
:020000040000fa
:04005c008e0600000c
:020000040000fa
:040060008e06000008
:020000040000fa
:040064008e06000004
:020000040000fa
:040068008e06000000
:020000040000fa
:04006c008e060000fc
:020000040000fa
:040070008e060000f8
:020000040000fa
:040074008e060000f4
:020000040000fa
:040078008e060000f0
:020000040000fa
:04007c008e060000ec
:020000040000fa
:040080008e060000e8
:020000040000fa
:040084008e060000e4
:020000040000fa
:040088008e060000e0
:020000040000fa
:04008c008e060000dc
:020000040000fa
:040090008e060000d8
:020000040000fa
:040094008e060000d4
:020000040000fa
:040098008e060000d0
:020000040000fa
:04009c008e060000cc
:020000040000fa
:0400a0008e060000c8
:020000040000fa
:0400a4008e060000c4
:020000040000fa
:0400a8008e060000c0
:020000040000fa
:0400ac008e060000bc
:020000040000fa
:0400b0008e060000b8
:020000040000fa
:0400b4008e060000b4
:020000040000fa
:0400b8008e060000b0
:020000040000fa
:0400bc008e060000ac
:020000040000fa
:0400c0008e060000a8
:020000040000fa
:0400c4008e060000a4
:020000040000fa
:0400c8008e060000a0
:020000040000fa
:0400cc008e0600009c
:020000040000fa
:0400d0008e06000098
:020000040000fa
:0400d4008e06000094
:020000040000fa
:0400d8008e06000090
:020000040000fa
:0400dc008e0600008c
:020000040000fa
:0400e0008e06000088
:020000040000fa
:0400e4008e06000084
:020000040000fa
:0400e8008e06000080
:020000040000fa
:0400ec008e0600007c
:020000040000fa
:0400f0008e06000078
:020000040000fa
:0400f4008e06000074
:020000040000fa
:0400f8008e06000070
:020000040000fa
:0400fc008e0600006c
:020000040000fa
:040100008e06000067
:020000040000fa
:040104008e06000063
:020000040000fa
:040108008e0600005f
:020000040000fa
:04010c008e0600005b
:020000040000fa
:040110008e06000057
:020000040000fa
:040114008e06000053
:020000040000fa
:040118008e0600004f
:020000040000fa
:04011c008e0600004b
:020000040000fa
:040120008e06000047
:020000040000fa
:040124008e06000043
:020000040000fa
:040128008e0600003f
:020000040000fa
:04012c008e0600003b
:020000040000fa
:040130008e06000037
:020000040000fa
:040134008e06000033
:020000040000fa
:040138008e0600002f
:020000040000fa
:04013c008e0600002b
:020000040000fa
:040140008e06000027
:020000040000fa
:040144008e06000023
:020000040000fa
:040148008e0600001f
:020000040000fa
:04014c008e0600001b
:020000040000fa
:040150008e06000017
:020000040000fa
:040154008e06000013
:020000040000fa
:040158008e0600000f
:020000040000fa
:04015c008e0600000b
:020000040000fa
:040160008e06000007
:020000040000fa
:040164008e06000003
:020000040000fa
:040168008e060000ff
:020000040000fa
:04016c008e060000fb
:020000040000fa
:040170008e060000f7
:020000040000fa
:040174008e060000f3
:020000040000fa
:040178008e060000ef
:020000040000fa
:04017c008e060000eb
:020000040000fa
:040180008e060000e7
:020000040000fa
:040184008e060000e3
:020000040000fa
:040188008e060000df
:020000040000fa
:04018c008e060000db
:020000040000fa
:040190008e060000d7
:020000040000fa
:04019400b6030000ae
:020000040000fa
:040198008e060000cf
:020000040000fa
:04019c008e060000cb
:020000040000fa
:0401a0008e060000c7
:020000040000fa
:0401a4008e060000c3
:020000040000fa
:0401a8008e060000bf
:020000040000fa
:0401ac008e060000bb
:020000040000fa
:0401b0008e060000b7
:020000040000fa
:0401b4008e060000b3
:020000040000fa
:0401b8008e060000af
:020000040000fa
:0401bc008e060000ab
:020000040000fa
:0401c0008e060000a7
:020000040000fa
:0401c4008e060000a3
:020000040000fa
:0401c8008e0600009f
:020000040000fa
:0401cc008e0600009b
:020000040000fa
:0401d0008e06000097
:020000040000fa
:0401d40062050000c0
:020000040000fa
:0401d8009e05000080
:020000040000fa
:0401dc00da05000040
:020000040000fa
:0401e00016060000ff
:020000040000fa
:0401e40052060000bf
:020000040000fa
:0401e8008e0600007f
:020000040000fa
:0401ec008e0600007b
:020000040000fa
:0401f0008e06000077
:020000040000fa
:0401f4008e06000073
:020000040000fa
:0401f8008e0600006f
:020000040000fa
:0401fc008e0600006b
:020000040000fa
:040200008e06000066
:020000040000fa
:040204008e06000062
:020000040000fa
:040208008e0600005e
:020000040000fa
:04020c008e0600005a
:020000040000fa
:040210008e06000056
:020000040000fa
:040214008e06000052
:020000040000fa
:040218008e0600004e
:020000040000fa
:04021c008e0600004a
:020000040000fa
:040220008e06000046
:020000040000fa
:040224008e06000042
:020000040000fa
:040228008e0600003e
:020000040000fa
:04022c008e0600003a
:020000040000fa
:040230008e06000036
:020000040000fa
:040234008e06000032
:020000040000fa
:040238008e0600002e
:020000040000fa
:04023c008e0600002a
:020000040000fa
:040240008e06000026
:020000040000fa
:040244008e06000022
:020000040000fa
:040248008e0600001e
:020000040000fa
:04024c008e0600001a
:020000040000fa
:040250008e06000016
:020000040000fa
:040254008e06000012
:020000040000fa
:040258008e0600000e
:020000040000fa
:04025c008e0600000a
:020000040000fa
:040260008e06000006
:020000040000fa
:040264008e06000002
:020000040000fa
:040268008e060000fe
:020000040000fa
:04026c008e060000fa
:020000040000fa
:040270008e060000f6
:020000040000fa
:040274008e060000f2
:020000040000fa
:040278008e060000ee
:020000040000fa
:04027c008e060000ea
:020000040000fa
:040280008e060000e6
:020000040000fa
:040284008e060000e2
:020000040000fa
:040288008e060000de
:020000040000fa
:04028c008e060000da
:020000040000fa
:040290008e060000d6
:020000040000fa
:040294008e060000d2
:020000040000fa
:040298008e060000ce
:020000040000fa
:04029c008e060000ca
:020000040000fa
:0402a0008e060000c6
:020000040000fa
:0402a4008e060000c2
:020000040000fa
:0402a8008e060000be
:020000040000fa
:0402ac008e060000ba
:020000040000fa
:0402b0008e060000b6
:020000040000fa
:0402b4008e060000b2
:020000040000fa
:0402b8008e060000ae
:020000040000fa
:0402bc008e060000aa
:020000040000fa
:0402c0008e060000a6
:020000040000fa
:0402c4008e060000a2
:020000040000fa
:0402c8008e0600009e
:020000040000fa
:0402cc008e0600009a
:020000040000fa
:0402d0008e06000096
:020000040000fa
:0402d4008e06000092
:020000040000fa
:0402d8008e0600008e
:020000040000fa
:0402dc008e0600008a
:020000040000fa
:0402e0008e06000086
:020000040000fa
:0402e4008e06000082
:020000040000fa
:0402e8008e0600007e
:020000040000fa
:0402ec008e0600007a
:020000040000fa
:0402f0008e06000076
:020000040000fa
:0402f4008e06000072
:020000040000fa
:0402f8008e0600006e
:020000040000fa
:0402fc008e0600006a
:020000040000fa
:040300008e06000065
:020000040000fa
:040304008e06000061
:020000040000fa
:040308008e0600005d
:020000040000fa
:04030c008e06000059
:020000040000fa
:040310008e06000055
:020000040000fa
:040314008e06000051
:020000040000fa
:040318008e0600004d
:020000040000fa
:04031c008e06000049
:020000040000fa
:040320008e06000045
:020000040000fa
:100400004f0421000eff27000e018800000020008d
:100410000000e000020032000001200020028800fd
:10042000140007003f0207000000e00003003a004c
:1004300040142200010020000200370000002000cc
:1004400001002000810f70004220ae000f00070065
:10045000000020000000e0004220ae00000002008a
:1004600000000000a4210200000000000040da00ab
:100470000000fe00200020000000e000020032002a
:10048000100020009001880000000600a1028800f2
:10049000800478000000eb001f003700e284440075
:1004a00054a0b4009905ba00e284440054a0b400fa
:1004b0009906ba00e284440054a0b4000006eb00a0
:1004c000476fde00fd07b200ae018800636ce100fb
:1004d00003003a000ad801000000eb000e003700cc
:1004e000606ce10008003a00004deb000a05e800ee
:1004f000020039003420ec000af0a0008b05e9006e
:10050000f9ff3e00040037006168e100010032009d
:100510000086eb000b00070019c7ba001905ba00e6
:100520000e04e00003003a000a00e000dbff3a009e
:1005300000000600fe07b200ae0288008a047800c0
:10054000f5ff37000cd0a300e20f4d001c003b006c
:1005500089027800354dba000a05e800020039002a
:100560003420ec000af0a0008b05e9000f003200f7
:10057000254dba000a05e800020039003420ec00dd
:100580000af0a0008b05e900080032000c00e00032
:100590000600320015cdba000a05e8000200390055
:1005a0003420ec000af0a0008b05e9008984e80003
:1005b00054a0b4000b00e000e2ff3a000000060087
:1005c0009902ba00055d78008b05e900f7ff32005b
:1005d000c82ade00055d78008b05e900f3ff3200d4
:1005e0000c00e000f1ff320019ddba00eeff370029
:1005f0006100e10001003200100005005400f80025
:1006000050102000a002880000f927001000ba0056
:100610005400f9000700260000f0a6008703d1006f
:100620000703780001c4fe000003eb000120200056
:1006300091018800a11b2a00111303008703e90020
:10064000fdff3a0000f0a7000000050000f0a00048
:1006500080c4fe0086037800f3ff37000408200002
:10066000010037000002eb006100e10001003200f0
:10067000100005003200f8003400f8008102780014
:10068000930188003200be000100e0000c0032003f
:100690000470a70000f0a00032037800c733de002a
:1006a000848343004220af008703e800a70188004d
:1006b000f607b2007f30e100040032002000200085
:1006c0003400f9003200f900000006008100e90062
:1006d0000500e00003003a00018009003210030029
:1006e000e8ff37000180090032900300d561ae00b9
:1006f000e4ff370030002000f1ff370050052000f4
:10070000b00e8800a00a2000b00e8800d3e1a80037
:100710000000060050052000b00e8800a00a20004e
:10072000b00e8800d3e1a90000000600e81e040016
:1007300000000000e219040000000000101a04008c
:1007400000000000241a040000000000381a040011
:10075000000000004c1a040000000000601a0400b1
:1007600000000000741a0400000000003600f800c9
:10077000809fbe00829fbe00849fbe00869fbe00f9
:100780003200f8003400f80010002000a0018800ba
:100790001000200000d0fe000400fa00606080001d
:1007a0004300dd0010079800a01f80008000d100ea
:1007b0001e009000808f500004003100a01f8000b8
:1007c0000000d100000f7800020037009e0090006a
:1007d000010f78009e00780040002000c10e070045
:1007e0000b68a9000080fa003400f9003200f9001b
:1007f0004f03be004f02be004f01be004f00be00bf
:100800003600f900004006003600f800809fbe0068
:10081000829fbe00849fbe00869fbe000000fa003b
:10082000c028a9000000eb00bb0e07000080fa0002
:100830004f03be004f02be004f01be004f00be007e
:100840003600f900004006003600f800809fbe0028
:10085000829fbe00849fbe00869fbe000000fa00fb
:10086000b20e0700c048a90010002000aa0e070021
:100870000080fa004f03be004f02be004f01be00d1
:100880004f00be003600f900004006003600f800b8
:10089000809fbe00829fbe00849fbe00869fbe00d8
:1008a0000000fa00c068a900200020009a0e07008e
:1008b0000080fa004f03be004f02be004f01be0091
:1008c0004f00be003600f900004006003600f80078
:1008d000809fbe00829fbe00849fbe00869fbe0098
:1008e0000000fa00c088a900300020008a0e07002e
:1008f0000080fa004f03be004f02be004f01be0051
:100900004f00be003600f900004006003600f80037
:10091000809fbe00829fbe00849fbe00869fbe0057
:100920000000fa00c608a900700020007a0e070037
:100930000080fa004f03be004f02be004f01be0010
:100940004f00be003600f900004006003600f800f7
:10095000809fbe00829fbe00849fbe00869fbe0017
:100960000000fa0021468000001020000080600096
:100970000000e00003003200c508a900c00020000c
:10098000650e070021468000000220000080600004
:100990000000e00003003200c4a8a900900020007d
:1009a0005d0e070020468000700060000000e0003f
:1009b00003003200c488a900a0002000560e0700e2
:1009c00020468000610060000000e000030032006b
:1009d000c408a900b00020004f0e0700ffff370039
:1009e0003600f800809fbe00829fbe00849fbe003c
:1009f000869fbe000000fa00f08080000000e0004a
:100a000002003200f080800000000100300421006c
:100a1000104078008040e800300421000148780050
:100a20002004210011c0b300014878000028a9006b
:100a30000080fa004f03be004f02be004f01be000f
:100a40004f00be003600f900004006003600f800f6
:100a5000809fbe00829fbe00849fbe00869fbe0016
:100a60003200f8003400f80010002000a0018800d7
:100a70001000200000d0fe000200fa00616080003b
:100a8000010f7800108080000000e00003003200b9
:100a9000118080001e007800010001000b68a90091
:100aa0000080fa003400f9003200f9004f03be0064
:100ab0004f02be004f01be004f00be003600f900dd
:100ac000004006003600f800809fbe00829fbe00f6
:100ad000849fbe00869fbe003200f8003400f800fc
:100ae00010002000a00188001000200000d0fe00af
:100af0000200fa0061618000010f78002080800010
:100b00000000e00003003200218080001e00780019
:100b1000010001000d68a9000080fa003400f9000e
:100b20003200f9004f03be004f02be004f01be006d
:100b30004f00be003600f900004006003600f80005
:100b4000809fbe00829fbe00849fbe00869fbe0025
:100b50003200f8003400f80010002000a0018800e6
:100b60001000200000d0fe000200fa007161800039
:100b7000010f7800308080000000e00003003200a8
:100b8000318080001e007800010001000d88a9005e
:100b90000080fa003400f9003200f9004f03be0073
:100ba0004f02be004f01be004f00be003600f900ec
:100bb000004006003600f800809fbe00829fbe0005
:100bc000849fbe00869fbe003200f8003400f8000b
:100bd00010002000a00188001000200000d0fe00be
:100be0000200fa0081618000010f780040808000df
:100bf0000000e00003003200418080001e00780009
:100c0000010001000da8a9000080fa003400f900dd
:100c10003200f9004f03be004f02be004f01be007c
:100c20004f00be003600f900004006003600f80014
:100c3000809fbe00829fbe00849fbe00869fbe0034
:100c40003200f8003400f80010002000a0018800f5
:100c50001000200000d0fe000200fa009161800028
:100c6000010f7800508080000000e0000300320097
:100c7000518080001e007800010001000dc8a9000d
:100c80000080fa003400f9003200f9004f03be0082
:100c90004f02be004f01be004f00be003600f900fb
:100ca000004006003600f800809fbe00829fbe0014
:100cb000849fbe00869fbe003200f8003400f8001a
:100cc00010002000a00188001000200000d0fe00cd
:100cd0000200fa00a1618000010f780060808000ae
:100ce0000000e00003003200618080001e007800f8
:100cf000010001000de8a9000080fa003400f900ad
:100d00003200f9004f03be004f02be004f01be008b
:100d10004f00be003600f900004006000040da0037
:080d20000000fe0000000500c8
:020000040000fa
:100d280000000000ca0000001f00000000020400cc
:100d38000000000078030000ba030000fa03000076
:100d480098030000da030000540500001a040000ac
:100d5800540500005405000042030000540500003b
:100d68005405000054050000540500005405000017
:100d78005405000054050000540500005405000007
:100d880054050000540500005405000054050000f7
:100d980054050000540500005405000054050000e7
:100da80054050000540500005405000054050000d7
:100db80054050000540500005405000054050000c7
:100dc80054050000540500005405000054050000b7
:100dd80054050000540500005405000054050000a7
:100de8005405000054050000540500005405000097
:100df8005405000054050000540500005405000087
:100e08005405000054050000540500005405000076
:100e18005405000054050000540500005405000066
:100e28005405000054050000540500005405000056
:100e38005405000054050000540500005405000046
:100e48005405000054050000540500005405000036
:100e58005405000054050000540500005405000026
:100e68005405000054050000540500005405000016
:100e78005405000054050000540500005405000006
:100e880054050000540500005405000054050000f6
:100e980054050000540500005405000054050000e6
:100ea80054050000540500005405000054050000d6
:100eb80054050000540500005405000054050000c6
:100ec80054050000120300006404000054050000eb
:100ed80054050000540500005405000054050000a6
:100ee8005405000054050000540500005405000096
:100ef8005405000054050000540500005405000086
:100f0800540500005405000054050000a00400002a
:100f1800dc040000540500005405000054050000de
:100f28005405000054050000540500005405000055
:100f38005405000054050000540500005405000045
:100f48005405000054050000540500005405000035
:100f58005405000054050000540500005405000025
:100f68005405000054050000540500005405000015
:100f78005405000054050000540500005405000005
:100f880054050000540500005405000054050000f5
:100f980054050000540500005405000054050000e5
:100fa80054050000540500005405000054050000d5
:100fb80054050000540500005405000054050000c5
:100fc80054050000540500005405000054050000b5
:100fd80054050000540500005405000054050000a5
:100fe8005405000054050000540500005405000095
:100ff8005405000054050000540500005405000085
:101008005405000054050000540500005405000074
:101018005405000054050000540500005405000064
:101028005405000054050000540500005405000054
:101038005405000054050000540500005405000044
:101048005405000054050000540500000000fe008f
:101058000000fe0000020000000200001f00000067
:101068006f1121002efe24000e01880000000000f0
:10107800000020000000e000020032000001200013
:101088002002880014000700a10107000000e0000a
:1010980003003a0020102100010020000200370060
:1010a8000000200001002000810f700001003200c4
:1010b8000f000700000020000000e00002003200de
:1010c8000000020000000000a01202000000000062
:1010d8000040da000000fe00200020000000e000d0
:1010e8000200320010002000900188000000060075
:1010f800a1028800800478000000eb001f00370080
:10110800e284440054a0b4009905ba00e284440083
:1011180054a0b4009906ba00e284440054a0b40074
:101128000006eb00476fde00fd07b200ae01880045
:10113800636ce10003003a000ad801000000eb00ec
:101148000e003700606ce10008003a00004deb002b
:101158000a05e800020039003420ec000af0a0007b
:101168008b05e900f9ff3e00040037006168e100e3
:10117800010032000086eb000b00070019c7ba0017
:101188001905ba000e04e00003003a000a00e00066
:10119800dbff3a0000000600fe07b200ae0288003e
:1011a8008a047800f5ff37000cd0a300e20f4d0049
:1011b8001c003b0089027800354dba000a05e8009a
:1011c800020039003420ec000af0a0008b05e90089
:1011d8000f003200254dba000a05e8000200390068
:1011e8003420ec000af0a0008b05e900080032006a
:1011f8000c00e0000600320015cdba000a05e80030
:10120800020039003420ec000af0a0008b05e90048
:101218008984e80054a0b4000b00e000e2ff3a0023
:10122800000006009902ba00055d78008b05e90008
:10123800f7ff3200c82ade00055d78008b05e9005b
:10124800f3ff32000c00e000f1ff320019ddba00b4
:10125800eeff370000000000000000000000000062
:101268000000000000000000000000000000000076
:101278000000000000000000000000000000000066
:10128800000000003600f800809fbe00829fbe006c
:10129800849fbe00869fbe003200f8003400f8002c
:1012a80010002000a00188001000200000d0fe00df
:1012b8000000fa00000521002b0407000b88a90094
:1012c8000080fa003400f9003200f9004f03be0034
:1012d8004f02be004f01be004f00be003600f900ad
:1012e800004006003600f800809fbe00829fbe00c6
:1012f800849fbe00869fbe000000fa0050828000d6
:101308000000e0000200320050828000000001006e
:1013180050112100104078008040e8005011210051
:10132800014878004011210011c0b300014878003d
:101338000028a9000080fa004f03be004f02be003b
:101348004f01be004f00be003600f9000040060005
:101358003600f800809fbe00829fbe00849fbe00ba
:10136800869fbe000000fa00c028a9000000eb001c
:101378007f0707000080fa004f03be004f02be003f
:101388004f01be004f00be003600f90000400600c5
:101398003600f800809fbe00829fbe00849fbe007a
:1013a800869fbe000000fa0076070700c048a90023
:1013b800100020006e0707000080fa004f03be00ef
:1013c8004f02be004f01be004f00be003600f900bc
:1013d800004006003600f800809fbe00829fbe00d5
:1013e800849fbe00869fbe000000fa00c068a90066
:1013f800200020005e0707000080fa004f03be00af
:101408004f02be004f01be004f00be003600f9007b
:10141800004006003600f800809fbe00829fbe0094
:10142800849fbe00869fbe000000fa00c088a90005
:10143800300020004e0707000080fa004f03be006e
:101448004f02be004f01be004f00be003600f9003b
:10145800004006003600f800809fbe00829fbe0054
:10146800849fbe00869fbe000000fa00c608a9003f
:10147800700020003e0707000080fa004f03be00fe
:101488004f02be004f01be004f00be003600f900fb
:10149800004006003600f800809fbe00829fbe0014
:1014a800849fbe00869fbe000000fa00214680008f
:1014b80000102000008060000000e00003003200ff
:1014c800c508a900c00020002907070021468000a0
:1014d80000022000008060000000e00003003200ed
:1014e800c4a8a9009000200021070700204680001a
:1014f800700060000000e00003003200c488a9000a
:10150800a00020001a070700204680006100600044
:101518000000e00003003200c408a900b000200069
:1015280013070700ffff37003600f800809fbe0052
:10153800829fbe00849fbe00869fbe003200f800d6
:101548003400f80010002000a001880010002000de
:1015580000d0fe000200fa0081608000010f7800d0
:10156800d08180000000e00003003200d1818000bb
:101578001e007800010001000ba8a9000080fa00f5
:101588003400f9003200f9004f03be004f02be00dc
:101598004f01be004f00be003600f90000400600b3
:1015a8003600f800809fbe00829fbe00849fbe0068
:1015b800869fbe003200f8003400f80010002000ba
:1015c800a00188001000200000d0fe000200fa00f0
:1015d80091618000010f7800e08180000000e00048
:1015e80003003200e18180001e0078000100010044
:1015f8000dc8a9000080fa003400f9003200f90093
:101608004f03be004f02be004f01be004f00be0098
:101618003600f900004006003600f800809fbe0042
:10162800829fbe00849fbe00869fbe003200f800e5
:101638003400f80010002000a001880010002000ed
:1016480000d0fe000200fa00a1618000010f7800be
:10165800f08180000000e00003003200f18180008a
:101668001e007800010001000de8a9000080fa00c2
:101678003400f9003200f9004f03be004f02be00eb
:101688004f01be004f00be003600f90000400600c2
:101698003600f800809fbe00829fbe00849fbe0077
:1016a800869fbe003200f8003400f80010002000c9
:1016b800a00188001000200000d0fe000200fa00ff
:1016c80071608000010f7800008280000000e00057
:1016d80003003200018280001e0078000100010032
:1016e8000b88a9000080fa003400f9003200f900e4
:1016f8004f03be004f02be004f01be004f00be00a8
:101708003600f900004006000040da000000fe0044
:10171800000005000400fa00100798000000eb0024
:10172800000f78001e009000f0400a001000000032
:101738001e00900001002100f20f200002816000cd
:10174800c0619000e0c1610002c171004260980070
:10175800c808de005061900060416100814071005e
:10176800516098001e009000c1002100f20f200077
:1017780002816000e0619000e0c1610002c1710077
:1017880062609800c808de007061900060416100e6
:1017980081407100716098001e00900021ff2400b4
:1017a800f20f20000281600080699000e0c16100b2
:1017b80002c1710002689800c808de001069900034
:1017c8006041610081407100116898001e0090001e
:1017d80081ff2400f20f200002816000a0699000c0
:1017e800e0c1610002c1710022689800c808de00eb
:1017f8003069900060416100814071003168980053
:10180800118280001e009000f20f2000028160000b
:10181800e0719000e0c1610002c17100627098003f
:10182800c808de007071900060416100814071005d
:1018380071709800218280001e009000f20f200035
:101848000281600080799000e0c1610002c17100ee
:1018580002789800c808de001079900060416100a5
:1018680000060000000200001f0000008140710017
:1018780011789800318280001e009000f20f20003d
:1018880002816000a0799000e0c1610002c171008e
:1018980022789800c808de00307990006041610025
:1018a8008140710031789800218180001e009000ed
:1018b800f20f200002816000c0719000e0c1610059
:1018c80002c1710042709800c808de005071900093
:1018d800604161008140710051709800e180800092
:1018e8001e009000f20f200002816000c069900085
:1018f800e0c1610002c1710042689800c808de00ba
:101908005069900060416100814071005168980001
:10191800f18080001e009000f20f2000028160001c
:10192800e0699000e0c1610002c17100626898003e
:10193800c808de0070699000604161008140710054
:1019480071689800018180001e009000f20f20004d
:101958000281600080719000e0c1610002c17100e5
:1019680002709800c808de001071900060416100a4
:101978008140710011709800118180001e00900054
:10198800f20f200002816000a0719000e0c16100a8
:1019980002c1710022709800c808de003071900002
:1019a8006041610081407100317098000000eb00d7
:1019b800000f78000d0037001e0178001e00780027
:1019c800c200dd00800f2100008040001000be0032
:1019d800c211dd0002002100028141000089be0021
:1019e8001e0078000000e800000f78001e0090003c
:1019f800c06890008180fb00506890000080fb0068
:101a08004800dd0000807000800078001e0078002b
:101a1800808f5000e8ff3e000000eb00000f7800c8
:101a28000e0037001e0178001e007800c200dd009d
:101a380040102100008040001000be0063014100fa
:101a4800c211dd0002002100028141000089be00b0
:101a58001e0078000000e800000f78001e009000cb
:101a6800e06890008180fb00706890000080fb00b7
:101a78004800dd0000807000800078001e007800bb
:101a8800808f5000e7ff3e00000521001902070083
:101a9800318180001e009000f20f2000028160005a
:101aa800e0799000e0c1610002c17100627898009d
:101ab800c808de00707990006041610081407100c3
:101ac80071789800418180001e009000f20f20007c
:101ad80002816000c0799000e0c1610002c171001c
:101ae80042789800c808de00507990006041610093
:101af8008140710051789800100020000080fa00a1
:101b0800000006000200fa000000eb00000f780059
:101b18004006200040828800e0c02000f10f20002d
:101b2800010160002105210091417800e0c16100b8
:101b380002c1710082487800c800de00300521002b
:101b480010417800604161008140710001487800cf
:101b58008005210090407800e0c0600001487800ce
:101b68009005210090407800e0c0600001487800ae
:101b78004005210090407800e0c0600001487800ee
:101b88005005210090407800e0c0600001487800ce
:101b9800600521001041780080c0eb008140710091
:101ba80001487800700521009040780060c160000d
:101bb800f1c7b30081407100014878002049200036
:101bc800f10f2000010160002106210091417800f9
:101bd800e0c1610002c1710082487800c800de00df
:101be8003006210010417800604161008140710099
:101bf800014878008006210090407800e0c060002d
:101c0800014878009006210090407800e0c060000c
:101c1800014878004006210090407800e0c060004c
:101c2800014878005006210090407800e0c060002c
:101c380001487800600621001041780080c0eb0060
:101c480081407100014878007006210090407800ba
:101c580060c16000f1c7b30081407100014878009d
:101c680080042100f10f20000101600021072100fc
:101c780091417800e0c1610002c17100824878009a
:101c8800c800de0030072100104178006041610083
:101c98008140710001487800800921009040780057
:101ca800e0c060000144a0000148780090092100cc
:101cb80090407800e0c0600001487800a009210049
:101cc8009040780060c1600091c3b300814071000a
:101cd80001487800b00921009040780060c1600098
:101ce80081c3b3008140710001487800800c210055
:101cf80090407800e0c0600001487800900c210016
:101d080090407800e0c0600001487800a00c2100f5
:101d180090407800e0c0600001487800b00c2100d5
:101d280090407800e0c0600001487800c00c2100b5
:101d380090407800e0c0600001487800d00c210095
:101d480090407800e0c0600001487800e00c210075
:101d580090407800e0c0600001487800f00c210055
:101d680090407800e0c0600001487800000d210034
:101d780090407800e0c0600001487800100d210014
:101d880090407800e0c0600001487800200d2100f4
:101d980090407800e0c0600001487800300d2100d4
:101da80090407800e0c0600001487800400d2100b4
:101db80090407800e0c0600001487800500d210094
:101dc80090407800e0c0600001487800600d210074
:101dd80090407800e0c0600001487800700d210054
:101de80090407800e0c060000148780010052100ac
:101df800904078000174a100014878000005210096
:101e080047fe0700000f78001e0078000080fa00e7
:101e1800000006000000fa0010052100904078003c
:101e28000174a0000148780041828000408c2000a5
:101e3800808f500004003e00408280006a0040000d
:101e48004082880002003700508c200040828800c1
:101e58000080fa00000006000000fa00002bef00e6
:101e68000006200010588800042bef00062bef0016
:101e7800082bef0000202c00505888000c2bef0096
:101e88004000200070588800102bef00122bef0044
:101e9800142bef006000200000598800800120000a
:101ea80010598800382bef00402bef00482bef002b
:101eb800502bef003a2bef00422bef004a2bef009c
:101ec800522bef003c2bef00442bef004c2bef0084
:101ed800542bef003e2bef00462bef004e2bef006c
:101ee800562bef0000402000505b88000040200087
:101ef800705b880000402000905b88000040200054
:101f0800b05b8800a02bef00a42bef00a82bef00fc
:101f1800ac2bef00d02bef00d22bef00d42bef002f
:101f2800d82bef0000302000b05e88000030200081
:101f3800d05e8800f02bef00f22bef00022cef00b0
:101f480000a020004c000700e0a22000620007006b
:101f580020a420006a00070060a520007200070086
:101f6800a0a620007a0007000ba8a9002ba8a800ab
:101f78000dc8a9002dc8a8000de8a9002de8a800e3
:101f88000b88a9002b88a8001160800000f02000b1
:101f9800010070001060880001eba800280007000d
:101fa8001c00070000e02000005c880010002000f2
:101fb800105c8800842bef00862bef00882bef0045
:101fc8008a2bef008c2bef008e2bef00902bef006d
:101fd80000102000905c880010002000a05c8800a1
:101fe8000080fa00000006000000fa00000ca800bb
:101ff80000000000016080000010200000806000e8
:102008000000e000fbff32000a0ba8000080fa0085
:10201800000006000000fa00002ca80000000000e4
:102028000160800000202000008060000000e000c7
:10203800fbff32000a2ba8000080fa00000006000f
:102048000000fa0000eca800000000000160800019
:1020580000002800008060000000e000fbff320064
:102068000aeba8000080fa0000000600000a000041
:10207800000200001f0000000000fa000080fa00c3
:10208800000006000200fa00000f78001e00780029
:10209800c08188000080fa00000006000000fa00f5
:1020a8005140800000402000008060000000e000f7
:1020b80006003200c08180000000e000020032000b
:1020c800c0818000000001000b48a9000080fa00d0
:1020d800000006000200fa00000f78000080fa00f5
:1020e800000006000200fa00000f78001e007800c9
:1020f800d08188000080fa00000006000200fa0083
:10210800000f78000080fa00000006000200fa00c4
:10211800000f78001e007800e08188000080fa0037
:10212800000006000200fa00000f78000080fa00a4
:10213800000006000200fa00000f78001e00780078
:10214800f08188000080fa00000006000200fa0012
:10215800000f78000080fa00000006000200fa0074
:10216800000f78001e007800008288000080fa00c6
:102178000000060000a0fe0010f0a6005c0037007a
:10218800841f7800851f7800861f7800881f7800d4
:102198008a1f78002200f8002400f8002600f800c2
:1021a8002800f8002a00f8002c00f8004400f80085
:1021b8004200f800040c200024028800501590000a
:1021c8002a039000360598001a0390002605980007
:1021d8000a039000160598001001900092007800fc
:1021e8001011900092801000201990008208dd00e4
:1021f80030149000010d78005290c3008608c30087
:102208008708c1000500c8000080cb00d8ba970035
:102218008708c1000500c8000080cb00d8ba970025
:102228008708c1000500c8000080cb00d8ba970015
:102238001301c1000500c8000080cb0020149000e5
:10224800401590005290c7008608c3008708c10057
:102258000500c8000080cb00d8ba97008708c100e5
:102268000500c8000080cb00d8ba97001301c10050
:102278000500c8000080cb000480cd0040239000fa
:102288001620e600060278005023900016a0e6000b
:1022980006027800100c9000040c7800401590009d
:1022a8001a039000260598000a0390001605980066
:1022b800040d78004200f9004400f9002c00f900f0
:1022c8002a00f9002800f9002600f9002400f90086
:1022d8002200f9004f0578004f0478004f0378007a
:1022e800cf0278004f027800400b04000000000085
:1022f80010019000920078000080fe0000000600a7
:10230800801f7800401090000018eb000018eb00c8
:102318000008eb004f007800801f780050109000f4
:102328000018eb000018eb000018eb000008eb00a9
:102338004f00780000000600801f7800811f780099
:1023480050109000011878000118780001187800e2
:1023580001087800cf0078004f007800801f7800cf
:10236800821f780040109000021878000218780048
:10237800020878004f0178004f007800000006003e
:1023880000a0fe0010f0a60030003700841f78007f
:10239800861f7800881f78008a1f78002200f800be
:1023a8002400f8002600f8002800f8002a00f800a9
:1023b8002c00f8004400f8004200f800040c20004b
:1023c80024028800100190009200780010119000fb
:1023d80092801000201990008208dd00701b900088
:1023e80060199000010278001301c1000200c800c2
:1023f8000400cd00402390001620e6000602780075
:102408005023900016a0e60006027800100c9000f9
:10241800040c78004200f9004400f9002c00f9008f
:102428002a00f9002800f9002600f9002400f90024
:102438002200f9004f0578004f0478004f03780018
:102448004f027800ee0b040000000000100190001d
:10245800920078000080fe00000006000000fa00ec
:1024680080082000702388001000200000188800d1
:102478000223ef000423ef000623ef000823ef00f8
:1024880000012000501888000c23ef000e23ef00f5
:102498001023ef001223ef001423ef001623ef00a0
:1024a8001823ef001a23ef001c23ef001e23ef0070
:1024b8002023ef002223ef002423ef002623ef0040
:1024c8002823ef007024ef007224ef007424ef003b
:1024d800e0012000b023880080102000c02388007d
:1024e8007a24ef007c24ef007e24ef008024ef00a4
:1024f8008224ef008424ef008624ef008824ef0074
:102508008a24ef008c24ef008e24ef009024ef0043
:102518009224ef009424ef0080e72300b024880081
:102528009824ef009a24ef009c24ef009e24ef00eb
:10253800a024ef006fe4a8000080fa000000060065
:102548000000fa000080fa00000006000000fa000f
:102558004140800000202000008060000000e00072
:1025680002003200f6ff07000928a9000080fa00df
:10257800000006000000fa000080fa0000000600d3
:102588000000fa00a14080000020200000806000c8
:102598000000e00002003200f6ff07001528a9003d
:1025a8000080fa00000006000000fa000080fa002f
:1025b800000006000000fa00a14080000040200052
:1025c800008060000000e00002003200f6ff070013
:1025d8001548a9000080fa00000006000000fa0073
:1025e8000080fa00000006000000fa00a140800008
:1025f80000802000008060000000e000020032003f
:10260800f6ff07001568a9000080fa000000060020
:102618000000fa000080fa00000006000000fa003e
:10262800a140800000002100008060000000e00060
:1026380002003200f6ff07001588a9000080fa00a2
:10264800000006000000fa000080fa000000060002
:102658000000fa00a1408000000022000080600015
:102668000000e00002003200f6ff070015a8a900ec
:102678000080fa00000006000000fa000080fa005e
:10268800000006000000fa00a140800000002400bd
:10269800008060000000e00002003200f6ff070042
:1026a80015c8a9000080fa00000006000000fa0022
:1026b800007c80000080fa00000006000200fa009a
:1026c800faff0700000f78001e00780024000700ba
:1026d8000004e0000200320000002800710007003a
:1026e8001e0078002a0007000004e0000200320003
:1026f800000024006b0007001e007800320007006d
:102708000004e000020032000020200065000700fd
:102718001e0078003a0007000004e00002003200c2
:10272800000820005f0007001e0078004200070034
:102738000004e000020032000004200059000700f5
:102748001e0078004a0007000004e0000200320082
:1027580000012000530007000080fa000000060076
:102768000400fa00100798000040eb00004f7800c2
:102778001e0090000000e00002003d0010c0b30001
:10278800004f78001e4078000080fa000000060024
:102798000400fa00100798000040eb00004f780092
:1027a8009e00900000002400008060000000e0000f
:1027b8000200320010c0b300004f78001e407800bd
:1027c8000080fa00000006000400fa0010079800d4
:1027d8000040eb00004f78009e0090000020200091
:1027e800008060000000e0000200320010c0b3006a
:1027f800004f78001e4078000080fa0000000600b4
:102808000400fa00100798000040eb00004f780021
:102818009e00900000082000008060000000e0009a
:102828000200320010c0b300004f78001e4078004c
:102838000080fa00000006000400fa001007980063
:102848000040eb00004f78009e009000000420003c
:10285800008060000000e0000200320010c0b300f9
:10286800004f78001e4078000080fa000000060043
:102878000400fa0010079800000e00000002000093
:102888001f0000000040eb00004f78001e00900081
:10289800700060000000e0000200320010c0b300c9
:1028a800004f78001e4078000080fa000000060003
:1028b8000200fa00000f78009e80ea00007c800089
:1028c80000806000007c88000080fa00000006009c
:1028d8000000fa00802fef000080fa0000000600d8
:1028e8000000fa00d221ef000080fa000000060084
:1028f8000000fa00d321a8000080fa0000000600ba
:102908000000fa00a00e800088800a000000000085
:102918000080fb0000f0a7000000ea000000ea00c9
:102928004f00de00004078000080fa00000006003a
:102938000000fa00d321a9000080fa000000060078
:102948000000fa00a00e800099800a000000000034
:102958000080fb0000f0a7000000ea000000ea0089
:102968004f00de00004078000080fa0000000600fa
:102978000000fa00d301a8000080fa000000060059
:102988000000fa00d301a9000080fa000000060048
:102998000200fa0030002000000f7800a10e80002d
:1029a80000002800008060000000e0000300320002
:1029b80040002000000f780016003700a00e8000ad
:1029c800dc800a00000000000080fb00e10f5000de
:1029d80007003200e20f5000080032000000e0005b
:1029e80009003a000000eb00000f780009003700ea
:1029f80020002000000f780006003700100020009b
:102a0800000f78000300370030002000000f780026
:102a1800000000001e0078000080fa000000060098
:102a28000600fa0010079800210798000000eb0044
:102a3800000f78000f003700d10f80000010200031
:102a4800008060000000e0000e003a00f10f8000f6
:102a58001e009000010878001e0090000080e80029
:102a6800100798002e0090000000e9002007980049
:102a78001e0fe8002e0090000000e000eeff3a0074
:102a880001003700000000001e0078000080fa00f6
:102a9800000006000600fa001007980021079800b9
:102aa8000000eb00000f78000e003700d00f800008
:102ab800620060000000e0000e003a001e00900076
:102ac80010007800e00f88001e0090000080e800e9
:102ad800100798002e0090000000e90020079800d9
:102ae8001e0fe8002e0090000000e000efff3a0003
:102af80001003700000000001e0078000080fa0086
:102b0800000006000000fa000421ef00f070220027
:102b180040088800201028000008880050828000a3
:102b28000000e00002003a00200021002400070015
:102b38000028a9002028a800401121008040eb00af
:102b4800014878000080fa00000006000200fa0040
:102b5800000f78009e00780041088800401121008d
:102b68008040eb00014878000080fa000000060071
:102b78000000fa00400880000080fa00000006000b
:102b88000200fa00000f78009e00780021088800f3
:102b9800401121008040eb00014878000080fa00d5
:102ba800000006000000fa00200880000080fa00fb
:102bb800000006000000fa000080fa00000006008d
:102bc8000200fa00000f78002028a9009e00780073
:102bd800518288002028a8000080fa000000060022
:102be8000000fa00401121008040eb000148780005
:102bf8002028a80001e1a8000080fa0000000600d3
:102c08000000fa0001e1a9002028a9000080fa00cc
:102c1800000006000200fa0040112100104f780061
:102c28001e4078000004e00003003200401121003b
:102c38008040eb00014878001e4078000080fa00d0
:102c4800000006000000fa00501121001040780032
:102c58000080fb000080fa00000006000000fa0077
:102c6800501121008040eb00014878000080fa00f4
:102c7800000006000000fa002a30ef002c30ef00b8
:102c88000080fa00000006000000fa005081800071
:102c98000000e800508188000028a900e000070033
:102ca8002ed0bf000040e8002ef0b7002ed0bf00a5
:102cb800e94f500002003600dc0007002e70ef00dc
:102cc8000080fa00000006000000fa006181800020
:102cd80050818000808f5000250032006081800084
:102ce8000000e80060818800d30007008081800030
:102cf8000000e8008081880080818000e90f500092
:102d08001c0036003030ef00ce00070090818000b4
:102d18000000e8009081880090818000e90f500051
:102d2800140036003230ef00ca000700a08180008e
:102d38000000e800a0818800a0818000e90f500011
:102d48000c0036003430ef00c5000700b081800069
:102d58000000e800b0818800b0818000e90f5000d1
:102d6800040036003630ef00c000070001003700cd
:102d7800cd0007000080fa00000006000000fa00fd
:102d88002a30ef002c30ef00cfff0700feff37009e
:102d98000000fa0010002300307c8800800c20001e
:102da800407c880020022000507c880010102800f9
:102db800707c8800d0072000807c880010222000ca
:102dc800907c8800b82fef00ba2fef00be2fef00dd
:102dd800002def00a42fef00a62fef00aa2fef0081
:102de800ae2fef00b02fef00b22fef00120020003f
:102df80080072000a109200053f8200080497800ae
:102e0800814978008249780012002000600420007f
:102e18007105200043f82000804978008149780036
:102e28008249780000000000207c8000610060007a
:102e38000000e000fcff3a0000000000217c800058
:102e480000022000008060000000e000fbff32006c
:102e58000080fa00000006000000fa00707c800084
:102e6800ee800a00000000000080fb0000f0a700d0
:102e78000000ea000000ea004f00de000040780091
:102e88000080fa0000000600f81000001c00000096
:102e98008200000000007b006c020000d54b070098
:102ea80000474800ffff0f007bffff00bc9cff00ae
:102eb800ff0c8600ffff5f00640000005010000058
:102ec8008800000080000000001000001c000000c6
:102ed800800000001c1000000e00000082000000ae
:102ee80003000400000300000400030000404b003e
:102ef800fdff0000f24f00000e00000080000000ff
:102f08004210000006000000800000004810000089
:102f18000200000080000000141100000200000000
:102f2800800000004a10000002000000800000003d
:102f3800d810000020000000800000004c100000a5
:102f48000200000082000000ffff000038100000af
:102f58000a000000800000002a1000000e00000097
:102f6800800000004e1000000200000080000000f9
:102f7800000000000000fa00062eef00222eef00ed
:102f88003e2eef005a2eef00762eef00f0012000c3
:102f9800107088000080eb00f0708800f0ff2b00b4
:102fa800d07188000080eb00b0728800d0ff2f003d
:102fb800907388000c2eef00282eef00442eef00af
:102fc800602eef007c2eef000a2eef00262eef0079
:102fd800422eef005e2eef007a2eef00082eef0053
:102fe800242eef00402eef005c2eef00782eef002d
:102ff800f001200000708800d0392000e0708800bf
:10300800f00c2000c071880000c02700a072880062
:1030180000042000807388000080fa000000060089
:103028000000fa000080fa00000006000000fa0024
:103038000080fa00000006000000fa000080fa0094
:10304800000006000000fa0078fb07000080fa0084
:10305800000006000000fa000080fa0000000600e8
:103068000000fa000080fa00000006000000fa00e4
:10307800b073800011800a00000000000004a20064
:1030880061406000001200005c0000001f000000aa
:103098000080fb006100600000004000b173800008
:1030a8000110a10001007000b07388000080fa00d0
:1030b800000006000000fa000080fa000000060088
:1030c8000000fa00b1438000f08f2f0000806000fc
:1030d8000080a000b0438800b1438000f0ff2800c2
:1030e8000080600000c0a000b043880071438000e9
:1030f80080ff2f00008060000000a000704388005f
:1031080071438000f0f82f00008060000040a000ac
:103118007043880001428000f0f82f0000806000b2
:103128000040a000004288000080fa00000006006d
:103138000200fa00000f780021028000200f200012
:10314800008060001e007000200288000080fa00e5
:10315800000006000000fa00c3e8a8000000000014
:10316800000000000080fa00000006000000fa00dd
:1031780083ff0700d2ff070008ff0700dbfd0700f9
:103188003efb0700bbfc070061fe0700f1ff0700dc
:1031980000022000e6ff07000080fa000000060099
:1031a8000200fa00000f78009e0078006182880013
:1031b800ffff37000000fa00800d2100800778002b
:1031c800000f2100000188000080fa0000000600be
:1031d8000000fa0054fa0700e4ff070002000700a5
:1031e800e9fe0700ffff37000000fa00a4fe070011
:1031f8000080fa00000006000000fe000000fe004b
:083208000000000000000000be
:020000040000fa
:103210000000fa00002bef00000620001058880084
:10322000042bef00062bef00082bef0000202c00f2
:1032300050588800102bef00122bef00142bef00da
:103240001000200000598800f0012000105988006b
:10325000382bef00402bef00482bef00502bef00f6
:103260003a2bef00422bef004a2bef00522bef00de
:103270003c2bef00442bef004c2bef00542bef00c6
:103280003e2bef00462bef004e2bef00562bef00ae
:1032900000402000505b880000402000705b8800e8
:1032a00000402000905b880000402000b05b880058
:1032b000a02bef00a42bef00a82bef00ac2bef000e
:1032c000d02bef00d22bef00f02bef00f22bef0012
:1032d000022cef00209e21003d00070000a12100ec
:1032e0005300070040a221005b00070080a32100db
:1032f00063000700c0a421006b00070000a62100a6
:103300007300070040a721007b0007000b68a9009d
:103310002b68a8000d68a9002d68a8000d88a900d9
:103320002d88a8000da8a9002da8a8000dc8a900e7
:103330002dc8a8000de8a9002de8a80011608000a4
:1033400000f02000010070001060880001eba80070
:1033500011000700a0002000005c8800822bef0015
:10336000842bef00862bef00882bef008a2bef00d9
:103370008c2bef008e2bef0010102000805c88005b
:1033800010102000905c880010002000a05c8800d5
:103390000080fa00000006000000fa0000eca8001f
:1033a0000000000001608000000028000080600034
:1033b0000000e000fbff32000aeba8000080fa00ea
:1033c000000006000000fa000080fa00000006007d
:1033d0000200fa00000f78001e00780000808800cc
:1033e0000080fa00000006000000fa005140800052
:1033f00000402000008060000000e0000600320075
:10340000008080000000e0000200320000808000a8
:10341000000001000b48a9000080fa00000006002f
:103420000200fa00000f78000080fa000000060099
:103430000200fa00000f78001e007800108088005b
:103440000080fa00000006000200fa00000f780079
:103450000080fa00000006000200fa00000f780069
:103460001e007800208088000080fa00000006001e
:103470000200fa00000f78000080fa000000060049
:103480000200fa00000f78001e00780030808800eb
:103490000080fa00000006000200fa00000f780029
:1034a0000080fa00000006000200fa00000f780019
:1034b0001e007800408088000080fa0000000600ae
:1034c0000200fa00000f78000080fa0000000600f9
:1034d0000200fa00000f78001e007800508088007b
:1034e0000080fa00000006000200fa00000f7800d9
:1034f0000080fa00000006000200fa00000f7800c9
:103500001e007800608088000080fa00000006003d
:103510000000fa00d221ef0000082800d00f880038
:103520000080fa00000006000000fa0073f40700b3
:103530000080fa00000006000000fa004069280040
:10354000012020000001be008000eb0010002000e0
:1035500044f407000080fa00000006000000fa00b2
:10356000d321a8000080fa00000006000000fa0045
:10357000a00e800088800a00000000000080fb0090
:1035800000f0a7000000ea000000ea004f00de00a3
:10359000004078000080fa00000006000000fa00f9
:1035a000d321a9000080fa00000006000000fa0004
:1035b000a00e800099800a00000000000080fb003f
:1035c00000f0a7000000ea000000ea004f00de0063
:1035d000004078000080fa00000006000000fa00b9
:1035e000d301a8000080fa00000006000000fa00e5
:1035f000d301a9000080fa00000006000200fa00d2
:10360000a10e800000002400008060000000e000a7
:10361000030032000000eb00000f780002003700ca
:1036200010002000000f78001e0078000080fa00d3
:10363000000006000200fa00000f78001e0078006b
:103640000000e00003003a00d5c1a900000000001e
:1036500001003700000000000080fa0000000600b2
:103660000200fa0040002000000f7800a10e800048
:1036700000002400008060000000e0000300320031
:1036800050002000000f780016003700a00e8000c8
:10369000dc800a00000000000080fb00e10f500009
:1036a00007003200e20f5000080032000000e00086
:1036b00009003a000000eb00000f78000900370015
:1036c00030002000000f78000600370020002000a6
:1036d000000f78000300370040002000000f780042
:1036e000000000001e0078000080fa0000000600c4
:1036f0000600fa0010079800210798000000eb0070
:10370000000f78000e003700d00f800061006000cd
:103710000000e0000e003a00e10f80001e00900063
:10372000010878001e0090000080e8001007980053
:103730002e0090000000e900200798001e0fe8000e
:103740002e0090000000e000efff3a00010037007b
:10375000000000001e0078000080fa000000060053
:103760000600fa0010079800210798000000eb00ff
:10377000000f78000f003700d10f800000202000dc
:10378000008060000000e0000e003a001e00900083
:1037900010007800f00f88001e0090000080e80004
:1037a000100798002e0090000000e9002007980004
:1037b0001e0fe8002e0090000000e000eeff3a002f
:1037c00001003700000000001e0078000080fa00b1
:1037d000000006000000fa0080082000601e88003b
:1037e00010002000001888000223ef000423ef00df
:1037f0000623ef000823ef00000120005018880086
:103800000c23ef000e23ef001023ef001223ef0034
:103810001423ef001623ef001823ef001a23ef0004
:103820001c23ef001e23ef002023ef002223ef00d4
:103830002423ef002623ef002823ef00ce23ef0000
:10384000d023ef00d223ef0080012000a01e8800cb
:1038500080102000b01e8800d823ef00da23ef008c
:10386000dc23ef00de23ef00e023ef00e223ef0094
:10387000e423ef00e623ef00e823ef00ea23ef0064
:10388000ec23ef00ee23ef00f023ef00f223ef0034
:10389000406c2600a01f8800f623ef00f823ef00fd
:1038a000fa23ef00fc23ef00fe23ef00cde3a80096
:1038b0000080fa00000006000000fa000080fa0014
:1038c000000006000000fa004140800000042000d3
:1038d000008060000000e00002003200f6ff0700f8
:1038e00008c8a9000080fa00000006000000fa00e5
:1038f0000080fa00000006000000fa00a1408000ed
:1039000000202000008060000000e0000200320083
:10391000f6ff07001528a9000080fa000000060045
:103920000000fa000080fa00000006000000fa0023
:10393000a140800000402000008060000000e00006
:1039400002003200f6ff07001548a9000080fa00c7
:10395000000006000000fa000080fa0000000600e7
:103960000000fa00a140800000802000008060007c
:103970000000e00002003200f6ff07001568a90011
:103980000080fa00000006000000fa000080fa0043
:10399000000006000000fa00a140800000002100a5
:1039a000008060000000e00002003200f6ff070027
:1039b0001588a9000080fa00000006000000fa0047
:1039c0000080fa00000006000000fa00a14080001c
:1039d00000002200008060000000e00002003200d1
:1039e000f6ff070015a8a9000080fa0000000600f5
:1039f0000000fa000080fa00000006000000fa0053
:103a0000a140800000002400008060000000e00071
:103a100002003200f6ff070015c8a9000080fa0076
:103a2000000006000000fa00007c80000080fa0020
:103a3000000006000200fa00faff0700000f7800fd
:103a40001e007800240007000004e000020032009d
:103a500000002800710007001e0078002a000700ff
:103a60000004e00002003200000024006b000700a8
:103a70001e007800320007000004e000020032005f
:103a800000202000650007001e0078003a000700b3
:103a90000004e00002003200000820005f00070080
:103aa0001e007800420007000004e000020032001f
:103ab00000042000590007001e0078004a0007009b
:103ac0000004e00002003200000120005300070063
:103ad0000080fa00000006000400fa0010079800b9
:103ae0000040eb00004f78001e0090000000e00056
:103af00002003d0010c0b300004f78001e40780067
:103b00000080fa00000006000400fa001007980088
:103b10000040eb00004f78009e0090000000240061
:103b2000008060000000e0000200320010c0b3001e
:103b3000004f78001e4078000080fa000000060068
:103b40000400fa00100798000040eb00004f7800d6
:103b50009e00900000202000008060000000e00037
:103b60000200320010c0b300004f78001e40780001
:103b70000080fa00000006000400fa001007980018
:103b80000040eb00004f78009e00900000082000ed
:103b9000008060000000e0000200320010c0b300ae
:103ba000004f78001e4078000080fa0000000600f8
:103bb0000400fa00100798000040eb00004f780066
:103bc0009e00900000042000008060000000e000e3
:103bd0000200320010c0b300004f78001e40780091
:103be0000080fa00000006000400fa0010079800a8
:103bf0000040eb00004f78001e0090007000600055
:103c00000000e0000200320010c0b300004f780056
:103c10001e4078000080fa00000006000200fa0052
:103c2000000f78009e80ea00007c80000080600029
:103c3000007c88000080fa00000006000000fa0006
:103c4000802fef000080fa00000006000000fa005c
:103c50000421ef0070322200400888002010280064
:103c600000088800f08080000000e00002003a00b8
:103c700080ee2100240007000028a9002028a800c9
:103c8000200421008040eb00014878000080fa0009
:103c9000000006000200fa00000f78009e00780085
:103ca00041088800200421008040eb000148780092
:103cb0000080fa00000006000000fa0040088000c2
:103cc0000080fa00000006000200fa00000f7800f1
:103cd0009e00780021088800200421008040eb002d
:103ce000014878000080fa00000006000000fa0099
:103cf000200880000080fa00000006000000fa00a2
:103d00000080fa00000006000200fa00000f7800b0
:103d10002028a9009e007800f18088002028a800b3
:103d20000080fa00000006000000fa0020042100d4
:103d30008040eb00014878002028a80001e1a8009d
:103d40000080fa00000006000000fa0001e1a9006e
:103d50002028a9000080fa00000006000200fa00f6
:103d600020042100104f78001e4078000004e0007d
:103d700003003200200421008040eb00014878005d
:103d80001e4078000080fa00000006000000fa00e3
:103d900030042100104078000080fb000080fa0011
:103da000000006000000fa00300421008040eb0013
:103db000014878000080fa00000006000000fa00c8
:103dc0000e30ef001030ef000080fa000000060017
:103dd0000000fa00708080000000e8007080880019
:103de0000028a900ba00070012d0bf000040e80078
:103df00012f0b70012d0bf00e94f500002003600a9
:103e0000b60007001270ef000080fa000000060004
:103e10000000fa008180800070808000808f500058
:103e200025003200808080000000e800808088004b
:103e3000ad000700a08080000000e800a08088009e
:103e4000a0808000e90f50001c0036001430ef0005
:103e5000b0000700b08080000000e800b08088005b
:103e6000b0808000e90f5000140036001630ef00db
:103e7000ab000700c08080000000e800c080880020
:103e8000c0808000e90f50000c0036001830ef00b1
:103e9000a6000700d08080000000e800d0808800e5
:103ea000d0808000e90f5000040036001a30ef0087
:103eb000a100070001003700ad0007000080fa00f4
:103ec000000006000000fa000e30ef001030ef0096
:103ed000cfff0700feff37000000fa0010002300ac
:103ee000307c8800400b2000407c88008c2fef0045
:103ef00020022000507c880010102800707c880070
:103f0000d0072000807c880010222000907c880050
:103f10009a2fef00b82fef00ba2fef00be2fef005f
:103f2000002def00a42fef00a62fef00a82fef0029
:103f3000aa2fef00ae2fef00b02fef00b22fef004f
:103f40001200200080072000a109200053f8200063
:103f50008049780081497800824978001200200069
:103f6000600420007105200043f82000804978009b
:103f7000814978008249780000000000207c8000a0
:103f8000610060000000e000fcff3a00000000005b
:103f9000217c800000022000008060000000e00022
:103fa000fbff32000080fa00000006000000fa006b
:103fb000707c8000ee800a00000000000080fb00a2
:103fc00000f0a7000000ea000000ea004f00de0059
:103fd000004078000080fa00000006000000fa00af
:103fe000062eef00222eef003e2eef005a2eef009d
:103ff000762eef00f001200010708800d0ff2d0019
:10400000f0708800f0fd2900d07188000080eb007e
:10401000b0728800c0ff2f00907388000c2eef0054
:10402000282eef00442eef00602eef007c2eef00d4
:104030000a2eef00262eef00422eef005e2eef003c
:104040007a2eef00082eef00242eef00402eef0016
:104050005c2eef00782eef00f00120000070880049
:1040600070382000e0708800f00c2000c0718800db
:1040700000c02700a0728800000420008073880020
:104080000000eb0051052000b1468800a10a200085
:10409000b146880000688800a16c8000f00f2c00f9
:1040a000808060000020220001007000a06c880069
:1040b0000080200051052000b1468800a10a2000a0
:1040c000b1468800006888000080fa000000060001
:1040d0000000fa000080fa00000006000000fa006c
:1040e0000080fa00000006000000fa00a1738000c2
:1040f00000202000008060000000e000020032008c
:104100003faea900010037003faea8000080fa00d2
:10411000000006000000fa000080fa00000006001f
:104120000000fa000080fa00000006000000fa001b
:104130000080fa00000006000000fa00b073800062
:1041400000800a00000000000004a200614060003e
:104150000080fb0061006000b17380000100a100dd
:1041600001007000b07388000080fa0000000600b3
:104170000000fa000080fa00000006000000fa00cb
:10418000b1438000f08f2f00008060000080a0000d
:10419000b0438800b1438000f0f82f000080600039
:1041a0000040a000b0438800b143800080ff2f0092
:1041b000008060000000a000b0438800a1438000a0
:1041c000f0ff28000080600000c0a000a04388002d
:1041d000b1438000f0ff28000080600000c0a00014
:1041e000b043880061438000f0ff280080806000b9
:1041f000000026000100700060438800014280003a
:10420000f0f82f00008060000040a000004288000d
:104210000080fa00000006000200fa00000f78009b
:1042200021028000200f2000008060001e0070002e
:10423000200288000080fa00000006000000fa005a
:10424000c3e8a80000000000000000000080fa00a1
:10425000000006000000fa0060ff07001eff0700d4
:10426000c6ff0700aafc0700e9fb070059fd07008d
:1042700076fe0700f1ff070000022000e6ff0700be
:084280000080fa0000000600b6
:020000040000fa
:104288002210000020000000800000001c10000028
:104298000200000082000000ffff00004210000042
:1042a80002000000800000001e1000000200000054
:1042b80080000000001000000e00000080000000d8
:1042c8000e1000000e00000080000000201000000a
:0c42d80002000000800000000000000058
:020000040000fa
:1042e4000400fa00000f7800110798001e007800ff
:1042f400e40f500004003a009e009000811f8800e3
:104304000000000001003700000000000080fa00f7
:10431400000006000200fa00000f78009e007800fa
:10432400e1808800ffff37000000fa00200221002e
:1043340080077800a0032100000188000080fa00b3
:10434400000006000000fa00c1ff070079fc070026
:1043540074fc070002000700d9fe0700ffff3700c6
:104364000000fa0094fe07000080fa000000060036
:020000040000fa
:04437400ffffff0048
:020000040000fa
:02000004000af0
:04fe0000ffffff0001
:020000040000fa
:02000004000af0
:04fe2000ffffff00e1
:020000040000fa
:02000004000af0
:04fe300078ffff0058
:020000040000fa
:02000004000af0
:04fe38007bffff004d
:020000040000fa
:02000004000af0
:04fe40006003ff005c
:020000040000fa
:02000004000af0
:04fe4800ffffff00b9
:020000040000fa
:02000004000af0
:04fe5000deffff00d2
:020000040000fa
:02000004000af0
:04fe58000000ff00a7
:020000040000fa
:02000004000af0
:04fe60000000ff009f
:020000040000fa
:02000004000af0
:04fe68000000ff0097
:020000040000fa
:02000004000af0
:04fe70000000ff008f
:020000040000fa
:02000004000af0
:04fe7800ffffff0089
:020000040000fa
:02000004000af0
:04fe8000fffcff0084
:020000040000fa
:02000004000af0
:04fe8800ffffff0079
:020000040000fa
:02000004000af0
:04fe9000ffffff0071
:020000040000fa
:02000004000af0
:04fe9800ffffff0069
:020000040000fa
:02000004000af0
:04fea000ffffff0061
:020000040000fa
:02000004000af0
:04fea800ffffff0059
:020000040000fa
:02000004000af0
:04feb000ffffff0051
:020000040000fa
:02000004000af0
:04fec000ffffff0041
:020000040000fa
:02000004000af0
:04fed000ffbfff0071
:020000040000fa
:02000004000af0
:04fee000ffffff0021
:020000040000fa
:02000004000af0
:04fef000fdffff0013
:020000040000fa
:02000004000af0
:04ff0000f8ffff0007
:020000040000fa
:02000004000af0
:04ff08007bffff007c
:020000040000fa
:02000004000af0
:04ff1000f453ff00a7
:020000040000fa
:02000004000af0
:04ff1800ffffff00e8
:020000040000fa
:02000004000af0
:04ff2000feffff00e1
:020000040000fa
:02000004000af0
:04ff2800ffffff00d8
:020000040000fa
:02000004000af0
:04ff3000ffffff00d0
:020000040000fa
:02000004000af0
:04ff38000000ff00c6
:020000040000fa
:02000004000af0
:04ff40000000ff00be
:020000040000fa
:02000004000af0
:04ff48000000ff00b6
:020000040000fa
:02000004000af0
:04ff50000000ff00ae
:020000040000fa
:02000004000af0
:04ff5800ffffff00a8
:020000040000fa
:02000004000af0
:04fff800ffffff0008
:020000040000fa
:020000040100f9
:04300000ffffff00cf
:00000001FF
