:020000040000fa
:080000000002040000000000f2
:020000040000fa
:04000800b60300003b
:020000040000fa
:04000c00f8030000f5
:020000040000fa
:0400100038040000b0
:020000040000fa
:04001400d60300000f
:020000040000fa
:0400180018040000c8
:020000040000fa
:04001c00400600009a
:020000040000fa
:040020005804000080
:020000040000fa
:040024004006000092
:020000040000fa
:04002800400600008e
:020000040000fa
:04002c000a060000c0
:020000040000fa
:040030004006000086
:020000040000fa
:040034004006000082
:020000040000fa
:04003800400600007e
:020000040000fa
:04003c00400600007a
:020000040000fa
:040040004006000076
:020000040000fa
:040044004006000072
:020000040000fa
:04004800400600006e
:020000040000fa
:04004c00400600006a
:020000040000fa
:040050004006000066
:020000040000fa
:040054004006000062
:020000040000fa
:04005800400600005e
:020000040000fa
:04005c00400600005a
:020000040000fa
:040060004006000056
:020000040000fa
:040064004006000052
:020000040000fa
:04006800400600004e
:020000040000fa
:04006c00400600004a
:020000040000fa
:040070004006000046
:020000040000fa
:040074004006000042
:020000040000fa
:04007800400600003e
:020000040000fa
:04007c00400600003a
:020000040000fa
:040080004006000036
:020000040000fa
:040084004006000032
:020000040000fa
:04008800400600002e
:020000040000fa
:04008c00400600002a
:020000040000fa
:040090004006000026
:020000040000fa
:040094004006000022
:020000040000fa
:04009800400600001e
:020000040000fa
:04009c00400600001a
:020000040000fa
:0400a0004006000016
:020000040000fa
:0400a4004006000012
:020000040000fa
:0400a800400600000e
:020000040000fa
:0400ac00400600000a
:020000040000fa
:0400b0004006000006
:020000040000fa
:0400b4004006000002
:020000040000fa
:0400b80040060000fe
:020000040000fa
:0400bc0040060000fa
:020000040000fa
:0400c00040060000f6
:020000040000fa
:0400c40040060000f2
:020000040000fa
:0400c80040060000ee
:020000040000fa
:0400cc0040060000ea
:020000040000fa
:0400d00040060000e6
:020000040000fa
:0400d40040060000e2
:020000040000fa
:0400d80040060000de
:020000040000fa
:0400dc0040060000da
:020000040000fa
:0400e00040060000d6
:020000040000fa
:0400e40040060000d2
:020000040000fa
:0400e80040060000ce
:020000040000fa
:0400ec0040060000ca
:020000040000fa
:0400f00040060000c6
:020000040000fa
:0400f40040060000c2
:020000040000fa
:0400f80040060000be
:020000040000fa
:0400fc0040060000ba
:020000040000fa
:0401000040060000b5
:020000040000fa
:0401040040060000b1
:020000040000fa
:0401080040060000ad
:020000040000fa
:04010c0040060000a9
:020000040000fa
:0401100040060000a5
:020000040000fa
:0401140040060000a1
:020000040000fa
:04011800400600009d
:020000040000fa
:04011c004006000099
:020000040000fa
:040120004006000095
:020000040000fa
:040124004006000091
:020000040000fa
:04012800400600008d
:020000040000fa
:04012c004006000089
:020000040000fa
:040130004006000085
:020000040000fa
:040134004006000081
:020000040000fa
:04013800400600007d
:020000040000fa
:04013c004006000079
:020000040000fa
:040140004006000075
:020000040000fa
:040144004006000071
:020000040000fa
:04014800400600006d
:020000040000fa
:04014c004006000069
:020000040000fa
:040150004006000065
:020000040000fa
:040154004006000061
:020000040000fa
:04015800400600005d
:020000040000fa
:04015c004006000059
:020000040000fa
:040160004006000055
:020000040000fa
:040164004006000051
:020000040000fa
:04016800400600004d
:020000040000fa
:04016c004006000049
:020000040000fa
:040170004006000045
:020000040000fa
:040174004006000041
:020000040000fa
:04017800400600003d
:020000040000fa
:04017c004006000039
:020000040000fa
:040180004006000035
:020000040000fa
:040184004006000031
:020000040000fa
:04018800400600002d
:020000040000fa
:04018c004006000029
:020000040000fa
:040190004006000025
:020000040000fa
:04019400a2040000c1
:020000040000fa
:04019800400600001d
:020000040000fa
:04019c004006000019
:020000040000fa
:0401a0004006000015
:020000040000fa
:0401a4004006000011
:020000040000fa
:0401a800400600000d
:020000040000fa
:0401ac004006000009
:020000040000fa
:0401b0004006000005
:020000040000fa
:0401b4004006000001
:020000040000fa
:0401b80040060000fd
:020000040000fa
:0401bc0040060000f9
:020000040000fa
:0401c00040060000f5
:020000040000fa
:0401c40040060000f1
:020000040000fa
:0401c80040060000ed
:020000040000fa
:0401cc0040060000e9
:020000040000fa
:0401d00040060000e5
:020000040000fa
:0401d400de04000045
:020000040000fa
:0401d8001a05000004
:020000040000fa
:0401dc0056050000c4
:020000040000fa
:0401e0009205000084
:020000040000fa
:0401e400ce05000044
:020000040000fa
:0401e80040060000cd
:020000040000fa
:0401ec0040060000c9
:020000040000fa
:0401f00040060000c5
:020000040000fa
:0401f40040060000c1
:020000040000fa
:0401f80040060000bd
:020000040000fa
:0401fc0040060000b9
:020000040000fa
:0402000040060000b4
:020000040000fa
:0402040040060000b0
:020000040000fa
:0402080040060000ac
:020000040000fa
:04020c0040060000a8
:020000040000fa
:0402100040060000a4
:020000040000fa
:0402140040060000a0
:020000040000fa
:04021800400600009c
:020000040000fa
:04021c004006000098
:020000040000fa
:040220004006000094
:020000040000fa
:040224004006000090
:020000040000fa
:04022800400600008c
:020000040000fa
:04022c004006000088
:020000040000fa
:040230004006000084
:020000040000fa
:040234004006000080
:020000040000fa
:04023800400600007c
:020000040000fa
:04023c004006000078
:020000040000fa
:040240004006000074
:020000040000fa
:040244004006000070
:020000040000fa
:04024800400600006c
:020000040000fa
:04024c004006000068
:020000040000fa
:040250004006000064
:020000040000fa
:040254004006000060
:020000040000fa
:04025800400600005c
:020000040000fa
:04025c004006000058
:020000040000fa
:040260004006000054
:020000040000fa
:040264004006000050
:020000040000fa
:04026800400600004c
:020000040000fa
:04026c004006000048
:020000040000fa
:040270004006000044
:020000040000fa
:040274004006000040
:020000040000fa
:04027800400600003c
:020000040000fa
:04027c004006000038
:020000040000fa
:040280004006000034
:020000040000fa
:040284004006000030
:020000040000fa
:04028800400600002c
:020000040000fa
:04028c004006000028
:020000040000fa
:040290004006000024
:020000040000fa
:040294004006000020
:020000040000fa
:04029800400600001c
:020000040000fa
:04029c004006000018
:020000040000fa
:0402a0004006000014
:020000040000fa
:0402a4004006000010
:020000040000fa
:0402a800400600000c
:020000040000fa
:0402ac004006000008
:020000040000fa
:0402b0004006000004
:020000040000fa
:0402b4004006000000
:020000040000fa
:0402b80040060000fc
:020000040000fa
:0402bc0040060000f8
:020000040000fa
:0402c00040060000f4
:020000040000fa
:0402c40040060000f0
:020000040000fa
:0402c80040060000ec
:020000040000fa
:0402cc0040060000e8
:020000040000fa
:0402d00040060000e4
:020000040000fa
:0402d40040060000e0
:020000040000fa
:0402d80040060000dc
:020000040000fa
:0402dc0040060000d8
:020000040000fa
:0402e00040060000d4
:020000040000fa
:0402e40040060000d0
:020000040000fa
:0402e80040060000cc
:020000040000fa
:0402ec0040060000c8
:020000040000fa
:0402f00040060000c4
:020000040000fa
:0402f40040060000c0
:020000040000fa
:0402f80040060000bc
:020000040000fa
:0402fc0040060000b8
:020000040000fa
:0403000040060000b3
:020000040000fa
:0403040040060000af
:020000040000fa
:0403080040060000ab
:020000040000fa
:04030c0040060000a7
:020000040000fa
:0403100040060000a3
:020000040000fa
:04031400400600009f
:020000040000fa
:04031800400600009b
:020000040000fa
:04031c004006000097
:020000040000fa
:040320004006000093
:020000040000fa
:100400004f0421000eff27000e018800000020008d
:100410000000e000020032000001200020028800fd
:1004200014000700180207000000e00003003a0073
:1004300000cd200001002000020037000000200055
:1004400001002000810f70004220ae000f00070065
:10045000000020000000e0004220ae00000002008a
:1004600000000000300d0200000000000040da0033
:100470000000fe00200020000000e000020032002a
:10048000100020009001880000000600a1028800f2
:10049000800478000000eb001f003700e284440075
:1004a00054a0b4009905ba00e284440054a0b400fa
:1004b0009906ba00e284440054a0b4000006eb00a0
:1004c000476fde00fd07b200ae018800636ce100fb
:1004d00003003a000ad801000000eb000e003700cc
:1004e000606ce10008003a00004deb000a05e800ee
:1004f000020039003420ec000af0a0008b05e9006e
:10050000f9ff3e00040037006168e100010032009d
:100510000086eb000b00070019c7ba001905ba00e6
:100520000e04e00003003a000a00e000dbff3a009e
:1005300000000600fe07b200ae0288008a047800c0
:10054000f5ff37000cd0a300e20f4d001c003b006c
:1005500089027800354dba000a05e800020039002a
:100560003420ec000af0a0008b05e9000f003200f7
:10057000254dba000a05e800020039003420ec00dd
:100580000af0a0008b05e900080032000c00e00032
:100590000600320015cdba000a05e8000200390055
:1005a0003420ec000af0a0008b05e9008984e80003
:1005b00054a0b4000b00e000e2ff3a000000060087
:1005c0009902ba00055d78008b05e900f7ff32005b
:1005d000c82ade00055d78008b05e900f3ff3200d4
:1005e0000c00e000f1ff320019ddba00eeff370029
:1005f0006100e10001003200100005005400f80025
:1006000050102000a002880000f927001000ba0056
:100610005400f9000700260000f0a6008703d1006f
:100620000703780001c4fe000003eb000120200056
:100630009101880021d42800111303008703e900e9
:10064000fdff3a0000f0a7000000050000f0a00048
:1006500080c4fe0086037800f3ff37000408200002
:10066000010037000002eb006100e10001003200f0
:10067000100005003200f8003400f8008102780014
:10068000930188003200be000100e0000c0032003f
:100690000470a70000f0a00032037800c733de002a
:1006a000848343004220af008703e800a70188004d
:1006b000f607b2007f30e100040032002000200085
:1006c0003400f9003200f900000006008100e90062
:1006d0000500e00003003a00018009003210030029
:1006e000e8ff37000180090032900300d561ae00b9
:1006f000e4ff370030002000f1ff370050052000f4
:10070000b00e8800a00a2000b00e8800d3e1a80037
:100710000000060050052000b00e8800a00a20004e
:10072000b00e8800d3e1a9000000060020070400f5
:10073000000000004e0704000000000062070400f3
:100740000000000076070400000000008a07040093
:10075000000000009e07040000000000b207040033
:1007600000000000c40a0400000000003600f80089
:10077000809fbe00829fbe00849fbe00869fbe00f9
:100780000000fa00c028a9000000eb00a804070040
:100790000080fa004f03be004f02be004f01be00b2
:1007a0004f00be003600f900004006003600f80099
:1007b000809fbe00829fbe00849fbe00869fbe00b9
:1007c0000000fa009f040700c048a90010002000a4
:1007d000970407000080fa004f03be004f02be00de
:1007e0004f01be004f00be003600f9000040060079
:1007f0003600f800809fbe00829fbe00849fbe002e
:10080000869fbe000000fa00c068a90020002000fa
:10081000870407000080fa004f03be004f02be00ad
:100820004f01be004f00be003600f9000040060038
:100830003600f800809fbe00829fbe00849fbe00ed
:10084000869fbe000000fa00c088a900300020008a
:10085000770407000080fa004f03be004f02be007d
:100860004f01be004f00be003600f90000400600f8
:100870003600f800809fbe00829fbe00849fbe00ad
:10088000869fbe000000fa00c608a9007000200084
:10089000670407000080fa004f03be004f02be004d
:1008a0004f01be004f00be003600f90000400600b8
:1008b0003600f800809fbe00829fbe00849fbe006d
:1008c000869fbe000000fa00214680000010200034
:1008d000008060000000e00003003200c508a900ad
:1008e000c0002000520407002146800000022000c2
:1008f000008060000000e00003003200c4a8a900ee
:10090000900020004a04070020468000700060002c
:100910000000e00003003200c488a900a00020000d
:100920004304070020468000610060000000e000f2
:1009300003003200c408a900b00020003c040700f6
:10094000ffff37003600f800809fbe00829fbe0088
:10095000849fbe00869fbe003200f8003400f8007d
:1009600010002000a00188001000200000d0fe0030
:100970000200fa0061608000010f780010808000a2
:100980000000e00003003200118080001e007800ab
:10099000010001000b68a9000080fa003400f90092
:1009a0003200f9004f03be004f02be004f01be00ef
:1009b0004f00be003600f900004006003600f80087
:1009c000809fbe00829fbe00849fbe00869fbe00a7
:1009d0003200f8003400f80010002000a001880068
:1009e0001000200000d0fe000200fa0061618000cb
:1009f000010f7800208080000000e000030032003a
:100a0000218080001e007800010001000d68a9000f
:100a10000080fa003400f9003200f9004f03be00f4
:100a20004f02be004f01be004f00be003600f9006d
:100a3000004006003600f800809fbe00829fbe0086
:100a4000849fbe00869fbe003200f8003400f8008c
:100a500010002000a00188001000200000d0fe003f
:100a60000200fa0071618000010f78003080800080
:100a70000000e00003003200318080001e0078009a
:100a8000010001000d88a9000080fa003400f9007f
:100a90003200f9004f03be004f02be004f01be00fe
:100aa0004f00be003600f900004006003600f80096
:100ab000809fbe00829fbe00849fbe00869fbe00b6
:100ac0003200f8003400f80010002000a001880077
:100ad0001000200000d0fe000200fa0081618000ba
:100ae000010f7800408080000000e0000300320029
:100af000418080001e007800010001000da8a900bf
:100b00000080fa003400f9003200f9004f03be0003
:100b10004f02be004f01be004f00be003600f9007c
:100b2000004006003600f800809fbe00829fbe0095
:100b3000849fbe00869fbe003200f8003400f8009b
:100b400010002000a00188001000200000d0fe004e
:100b50000200fa0091618000010f7800508080004f
:100b60000000e00003003200518080001e00780089
:100b7000010001000dc8a9000080fa003400f9004e
:100b80003200f9004f03be004f02be004f01be000d
:100b90004f00be003600f900004006003600f800a5
:100ba000809fbe00829fbe00849fbe00869fbe00c5
:100bb0003200f8003400f80010002000a001880086
:100bc0001000200000d0fe000200fa00a1618000a9
:100bd000010f7800608080000000e0000300320018
:100be000618080001e007800010001000de8a9006e
:100bf0000080fa003400f9003200f9004f03be0013
:100c00004f02be004f01be004f00be003600f9008b
:100c1000004006003600f800809fbe00829fbe00a4
:100c2000849fbe00869fbe000000fa00f080800016
:100c30000000e00002003200f080800000000100af
:100c400030042100104078008040e800300421008a
:100c5000014878002004210011c0b3000148780049
:100c60000028a9000080fa004f03be004f02be001a
:100c70004f01be004f00be003600f90000400600e4
:0c0c80000040da000000fe00000005004b
:020000040000fa
:100c8c000000fa00002bef0000062000105888002e
:100c9c00042bef00062bef00082bef0000202c009c
:100cac0050588800102bef00122bef00142bef0084
:100cbc001000200000598800f00120001059880015
:100ccc00382bef00402bef00482bef00502bef00a0
:100cdc003a2bef00422bef004a2bef00522bef0088
:100cec003c2bef00442bef004c2bef00542bef0070
:100cfc003e2bef00462bef004e2bef00562bef0058
:100d0c0000402000505b880000402000705b880091
:100d1c0000402000905b880000402000b05b880001
:100d2c00a02bef00a42bef00a82bef00ac2bef00b7
:100d3c00d02bef00d22bef00f02bef00f22bef00bb
:100d4c00022cef00007220003d000700e074200030
:100d5c0053000700207620005b000700607720001e
:100d6c0063000700a07820006b000700e0792000ea
:100d7c0073000700207b20007b0007000b68a90094
:100d8c002b68a8000d68a9002d68a8000d88a90083
:100d9c002d88a8000da8a9002da8a8000dc8a90091
:100dac002dc8a8000de8a9002de8a800116080004e
:100dbc0000f02000010070001060880001eba8001a
:100dcc001100070040002000005c8800822bef001f
:100ddc00842bef00862bef00882bef008a2bef0083
:100dec008c2bef008e2bef0010102000805c880005
:100dfc0010102000905c880010002000a05c88007f
:100e0c000080fa00000006000000fa0000eca800c8
:100e1c0000000000016080000000280000806000dd
:100e2c000000e000fbff32000aeba8000080fa0093
:100e3c00000006000000fa000080fa000000060026
:100e4c000200fa00000f78001e0078000080880075
:100e5c000080fa00000006000000fa0051408000fb
:100e6c0000402000008060000000e000060032001e
:100e7c00008080000000e000020032000080800052
:100e8c00000001000b48a9000080fa0000000600d9
:100e9c000200fa00000f78000080fa000000060043
:100eac000200fa00000f78001e0078001080880005
:100ebc000080fa00000006000200fa00000f780023
:100ecc000080fa00000006000200fa00000f780013
:100edc001e007800208088000080fa0000000600c8
:100eec000200fa00000f78000080fa0000000600f3
:100efc000200fa00000f78001e0078003080880095
:100f0c000080fa00000006000200fa00000f7800d2
:100f1c000080fa00000006000200fa00000f7800c2
:100f2c001e007800408088000080fa000000060057
:100f3c000200fa00000f78000080fa0000000600a2
:100f4c000200fa00000f78001e0078005080880024
:100f5c000080fa00000006000200fa00000f780082
:100f6c000080fa00000006000200fa00000f780072
:100f7c001e007800608088000080fa0000000600e7
:100f8c000000fa0080082000601e8800100020007d
:100f9c00001888000223ef000423ef000623ef0063
:100fac000823ef0000012000501888000c23ef00ec
:100fbc000e23ef001023ef001223ef001423ef0099
:100fcc001623ef001823ef001a23ef001c23ef0069
:100fdc001e23ef002023ef002223ef002423ef0039
:100fec002623ef002823ef00ce23ef00d023ef00c1
:100ffc00d223ef0080012000a01e8800801020006a
:10100c00b01e8800d823ef00da23ef00dc23ef00ba
:10101c00de23ef00e023ef00e223ef00e423ef00f8
:10102c00e623ef00e823ef00ea23ef00ec23ef00c8
:10103c00ee23ef00f023ef00f223ef00406c2600cc
:10104c00a01f8800f623ef00f823ef00fa23ef002f
:10105c00fc23ef00fe23ef00cde3a8000080fa0094
:10106c00000006000000fa000080fa0000000600f4
:10107c000000fa0041408000000420000080600065
:10108c000000e00002003200f6ff070008c8a900cb
:10109c000080fa00000006000000fa000080fa0050
:1010ac00000006000000fa00a14080000020200093
:1010bc00008060000000e00002003200f6ff070034
:1010cc001528a9000080fa00000006000000fa00b4
:1010dc000080fa00000006000000fa00a140800029
:1010ec0000402000008060000000e00002003200a0
:1010fc00f6ff07001548a9000080fa000000060062
:10110c000000fa000080fa00000006000000fa005f
:10111c00a140800000802000008060000000e00002
:10112c0002003200f6ff07001568a9000080fa00e3
:10113c00000006000000fa000080fa000000060023
:10114c000000fa00a1408000000021000080600037
:10115c000000e00002003200f6ff07001588a9002d
:10116c000080fa00000006000000fa000080fa007f
:10117c00000006000000fa00a140800000002200e0
:10118c00008060000000e00002003200f6ff070063
:10119c0015a8a9000080fa00000006000000fa0063
:1011ac000080fa00000006000000fa00a140800058
:1011bc0000002400008060000000e000020032000b
:1011cc00f6ff070015c8a9000080fa000000060011
:1011dc000000fa00007c80000080fa00000006008d
:1011ec000200fa00faff0700000f78001e007800da
:1011fc00240007000004e000020032000000280078
:10120c00710007001e0078002a0007000004e000af
:10121c0002003200000024006b0007001e00780062
:10122c00320007000004e000020032000020200021
:10123c00650007001e0078003a0007000004e0007b
:10124c0002003200000820005f0007001e0078003a
:10125c00420007000004e0000200320000042000fd
:10126c00590007001e0078004a0007000004e00047
:10127c000200320000012000530007000080fa0039
:10128c00000006000400fa00100798000040eb0074
:10129c00004f78001e0090000000e00002003d00ae
:1012ac0010c0b300004f78001e4078000080fa0098
:1012bc00000006000400fa00100798000040eb0044
:1012cc00004f78009e009000000024000080600019
:1012dc000000e0000200320010c0b300004f7800a4
:1012ec001e4078000080fa00000006000400fa009e
:1012fc00100798000040eb00004f78009e00900013
:10130c0000202000008060000000e000020032009d
:10131c0010c0b300004f78001e4078000080fa0027
:10132c00000006000400fa00100798000040eb00d3
:10133c00004f78009e0090000008200000806000a4
:10134c000000e0000200320010c0b300004f780033
:10135c001e4078000080fa00000006000400fa002d
:10136c00100798000040eb00004f78009e009000a2
:10137c0000042000008060000000e0000200320049
:10138c0010c0b300004f78001e4078000080fa00b7
:10139c00000006000400fa00100798000040eb0063
:1013ac00004f78001e009000700060000000e0000c
:1013bc000200320010c0b300004f78001e407800cd
:1013cc000080fa00000006000200fa00000f78000e
:1013dc009e80ea00007c800000806000007c880019
:1013ec000080fa00000006000000fa00802fef00d9
:1013fc000080fa00000006000000fa000421ef0053
:10140c007032220040088800201028000008880054
:10141c00f08080000000e00002003a0040ac2000a8
:10142c00240007000028a9002028a800200421007f
:10143c008040eb00014878000080fa0000000600b4
:10144c000200fa00000f78009e0078004108880026
:10145c00200421008040eb00014878000080fa0055
:10146c00000006000000fa00400880000080fa002e
:10147c00000006000200fa00000f78009e007800c1
:10148c0021088800200421008040eb0001487800ee
:10149c000080fa00000006000000fa00200880001e
:1014ac000080fa00000006000000fa000080fa003c
:1014bc00000006000200fa00000f78002028a900a6
:1014cc009e007800f18088002028a8000080fa0097
:1014dc00000006000000fa00200421008040eb0010
:1014ec00014878002028a80001e1a8000080fa003b
:1014fc00000006000000fa0001e1a9002028a90064
:10150c000080fa00000006000200fa00200421000e
:10151c00104f78001e4078000004e00003003200f9
:10152c00200421008040eb00014878001e40780028
:10153c000080fa00000006000000fa0030042100d0
:10154c00104078000080fb000080fa0000000600cc
:10155c000000fa00300421008040eb0001487800c4
:10156c000080fa00000006000000fa000e30ef00c8
:10157c001030ef000080fa00000006000000fa00b6
:10158c00708080000000e800708088000028a900ae
:10159c00ba00070012d0bf000040e80012f0b700fc
:1015ac0012d0bf00e94f500002003600b600070011
:1015bc001270ef000080fa00000006000000fa0034
:1015cc008180800070808000808f50002500320068
:1015dc00808080000000e80080808800ad0007005b
:1015ec00a08080000000e800a0808800a08080001f
:1015fc00e90f50001c0036001430ef00b00007005b
:10160c00b08080000000e800b0808800b0808000ce
:10161c00e90f5000140036001630ef00ab00070045
:10162c00c08080000000e800c0808800c08080007e
:10163c00e90f50000c0036001830ef00a600070030
:10164c00d08080000000e800d0808800d08080002e
:10165c00e90f5000040036001a30ef00a10007001b
:10166c0001003700ad0007000080fa000000060002
:10167c000000fa000e30ef001030ef00cfff070033
:10168c00feff37000000fa0010002300307c8800b9
:10169c00400b2000407c88008c2fef0020022000a3
:1016ac00507c880010102800707c8800d007200027
:1016bc00807c880010222000907c88009a2fef00fc
:1016cc00b82fef00ba2fef00be2fef00002def0068
:1016dc00a42fef00a62fef00a82fef00aa2fef00ea
:1016ec00ae2fef00b02fef00b22fef001200200052
:1016fc0080072000a109200053f8200080497800c1
:10170c008149780082497800120020006004200092
:10171c007105200043f82000804978008149780049
:10172c008249780000000000207c8000610060008d
:10173c000000e000fcff3a0000000000217c80006b
:10174c0000022000008060000000e000fbff32007f
:10175c000080fa00000006000000fa00707c800097
:10176c00ee800a00000000000080fb0000f0a700e3
:10177c000000ea000000ea004f00de0000407800a4
:10178c000080fa00000006000000fa00062eef00b0
:10179c00222eef003e2eef005a2eef00762eef0099
:1017ac00f001200010708800d0ff2f00f07088002e
:1017bc00f0fd2d00d07188000080eb00b072880025
:1017cc00e0ff2f00907388000c2eef00282eef0006
:1017dc00442eef00602eef007c2eef000a2eef005f
:1017ec00262eef00422eef005e2eef007a2eef0039
:1017fc00082eef00242eef00402eef005c2eef00a1
:10180c00782eef00f0012000007088007038200066
:10181c00e0708800f00c2000c071880000c0270028
:10182c00a072880000042000807388000000eb0088
:10183c0051052000b1468800a10a2000b14688005d
:10184c0000688800a16c8000f00f2c008080600084
:10185c000020220001007000a06c88000080200095
:10186c0051052000b1468800a10a2000b14688002d
:10187c00006888000080fa00000006000000fa00f2
:10188c000080fa00000006000000fa000080fa0058
:10189c00000006000000fa00a17380000020200068
:1018ac00008060000000e000020032003faea900a2
:1018bc00010037003faea8000080fa0000000600cf
:1018cc000000fa000080fa00000006000000fa0098
:1018dc000080fa00000006000000fa000080fa0008
:1018ec00000006000000fa00b073800000800a00bf
:1018fc00000000000004a200614060000080fb00ba
:10190c0061006000b17380000100a1000100700053
:10191c00b07388000080fa00000006000000fa0096
:10192c000080fa00000006000200fa00000f7800a8
:10193c0021028000200f2000008060001e0070003b
:10194c00200288000080fa00000006000000fa0067
:10195c00c3e8a80000000000000000000080fa00ae
:10196c00000006000000fa0087ff070020000700b7
:10197c0044ff0700c2fc070081fd07009efe070024
:10198c00f2ff070000022000e7ff07000080fa00ca
:04199c000000060041
:020000040000fa
:1019a0002210000020000000800000001c10000039
:1019b0000200000082000000ffff00000010000095
:1019c0000e00000080000000421000000200000035
:1019d000800000001e1000000200000080000000d7
:1019e0000e1000000e00000080000000201000001b
:0c19f00002000000800000000000000069
:020000040000fa
:1019fc000000fa0001428000f0f82f000080600027
:101a0c000040a0000042880061438000f0ff2800e5
:101a1c000080600000c0a000604388000080fa00d5
:101a2c00000006000200fa00000f78009e0078000b
:101a3c00e1808800ffff37000000fa00200221003f
:101a4c0080077800a0032100000188000080fa00c4
:101a5c00000006000000fa00c2ff070002000700a9
:101a6c0003ff0700ffff37000000fa00befe07006f
:081a7c000080fa0000000600e2
:020000040000fa
:041a8400ffffff0061
:020000040000fa
:02000004000af0
:04fe0000ffffff0001
:020000040000fa
:02000004000af0
:04fe2000ffffff00e1
:020000040000fa
:02000004000af0
:04fe300078ffff0058
:020000040000fa
:02000004000af0
:04fe38007bffff004d
:020000040000fa
:02000004000af0
:04fe40006003ff005c
:020000040000fa
:02000004000af0
:04fe4800ffffff00b9
:020000040000fa
:02000004000af0
:04fe5000deffff00d2
:020000040000fa
:02000004000af0
:04fe58000000ff00a7
:020000040000fa
:02000004000af0
:04fe60000000ff009f
:020000040000fa
:02000004000af0
:04fe68000000ff0097
:020000040000fa
:02000004000af0
:04fe70000000ff008f
:020000040000fa
:02000004000af0
:04fe7800ffffff0089
:020000040000fa
:02000004000af0
:04fe8000fffcff0084
:020000040000fa
:02000004000af0
:04fe8800ffffff0079
:020000040000fa
:02000004000af0
:04feb000ffffff0051
:020000040000fa
:02000004000af0
:04fec000ffffff0041
:020000040000fa
:02000004000af0
:04fed000ffffff0031
:020000040000fa
:02000004000af0
:04fee000ffffff0021
:020000040000fa
:02000004000af0
:04fef000ffffff0011
:020000040000fa
:02000004000af0
:04fff800ffffff0008
:020000040000fa
:020000040100f9
:04300000ffffff00cf
:00000001FF
